{
  "contractName": "Color",
  "abi": [
    {
      "inputs": [],
      "stateMutability": "nonpayable",
      "type": "constructor"
    },
    {
      "anonymous": false,
      "inputs": [
        {
          "indexed": true,
          "internalType": "address",
          "name": "owner",
          "type": "address"
        },
        {
          "indexed": true,
          "internalType": "address",
          "name": "approved",
          "type": "address"
        },
        {
          "indexed": true,
          "internalType": "uint256",
          "name": "tokenId",
          "type": "uint256"
        }
      ],
      "name": "Approval",
      "type": "event"
    },
    {
      "anonymous": false,
      "inputs": [
        {
          "indexed": true,
          "internalType": "address",
          "name": "owner",
          "type": "address"
        },
        {
          "indexed": true,
          "internalType": "address",
          "name": "operator",
          "type": "address"
        },
        {
          "indexed": false,
          "internalType": "bool",
          "name": "approved",
          "type": "bool"
        }
      ],
      "name": "ApprovalForAll",
      "type": "event"
    },
    {
      "anonymous": false,
      "inputs": [
        {
          "indexed": false,
          "internalType": "uint256",
          "name": "_tokenId",
          "type": "uint256"
        },
        {
          "indexed": false,
          "internalType": "uint256",
          "name": "_value",
          "type": "uint256"
        },
        {
          "indexed": false,
          "internalType": "address payable",
          "name": "_owner",
          "type": "address"
        }
      ],
      "name": "Sale",
      "type": "event"
    },
    {
      "anonymous": false,
      "inputs": [
        {
          "indexed": true,
          "internalType": "address",
          "name": "from",
          "type": "address"
        },
        {
          "indexed": true,
          "internalType": "address",
          "name": "to",
          "type": "address"
        },
        {
          "indexed": true,
          "internalType": "uint256",
          "name": "tokenId",
          "type": "uint256"
        }
      ],
      "name": "Transfer",
      "type": "event"
    },
    {
      "inputs": [
        {
          "internalType": "address",
          "name": "to",
          "type": "address"
        },
        {
          "internalType": "uint256",
          "name": "tokenId",
          "type": "uint256"
        }
      ],
      "name": "approve",
      "outputs": [],
      "stateMutability": "nonpayable",
      "type": "function"
    },
    {
      "inputs": [
        {
          "internalType": "address",
          "name": "owner",
          "type": "address"
        }
      ],
      "name": "balanceOf",
      "outputs": [
        {
          "internalType": "uint256",
          "name": "",
          "type": "uint256"
        }
      ],
      "stateMutability": "view",
      "type": "function",
      "constant": true
    },
    {
      "inputs": [
        {
          "internalType": "uint256",
          "name": "",
          "type": "uint256"
        }
      ],
      "name": "coins",
      "outputs": [
        {
          "internalType": "uint256",
          "name": "id",
          "type": "uint256"
        },
        {
          "internalType": "uint256",
          "name": "price",
          "type": "uint256"
        },
        {
          "internalType": "string",
          "name": "name",
          "type": "string"
        },
        {
          "internalType": "address",
          "name": "owner",
          "type": "address"
        },
        {
          "internalType": "bool",
          "name": "isForSale",
          "type": "bool"
        }
      ],
      "stateMutability": "view",
      "type": "function",
      "constant": true
    },
    {
      "inputs": [],
      "name": "coinsCount",
      "outputs": [
        {
          "internalType": "uint256",
          "name": "",
          "type": "uint256"
        }
      ],
      "stateMutability": "view",
      "type": "function",
      "constant": true
    },
    {
      "inputs": [
        {
          "internalType": "uint256",
          "name": "",
          "type": "uint256"
        }
      ],
      "name": "colors",
      "outputs": [
        {
          "internalType": "string",
          "name": "",
          "type": "string"
        }
      ],
      "stateMutability": "view",
      "type": "function",
      "constant": true
    },
    {
      "inputs": [
        {
          "internalType": "uint256",
          "name": "tokenId",
          "type": "uint256"
        }
      ],
      "name": "getApproved",
      "outputs": [
        {
          "internalType": "address",
          "name": "",
          "type": "address"
        }
      ],
      "stateMutability": "view",
      "type": "function",
      "constant": true
    },
    {
      "inputs": [
        {
          "internalType": "address",
          "name": "owner",
          "type": "address"
        },
        {
          "internalType": "address",
          "name": "operator",
          "type": "address"
        }
      ],
      "name": "isApprovedForAll",
      "outputs": [
        {
          "internalType": "bool",
          "name": "",
          "type": "bool"
        }
      ],
      "stateMutability": "view",
      "type": "function",
      "constant": true
    },
    {
      "inputs": [],
      "name": "name",
      "outputs": [
        {
          "internalType": "string",
          "name": "",
          "type": "string"
        }
      ],
      "stateMutability": "view",
      "type": "function",
      "constant": true
    },
    {
      "inputs": [],
      "name": "owner",
      "outputs": [
        {
          "internalType": "address",
          "name": "",
          "type": "address"
        }
      ],
      "stateMutability": "view",
      "type": "function",
      "constant": true
    },
    {
      "inputs": [
        {
          "internalType": "uint256",
          "name": "tokenId",
          "type": "uint256"
        }
      ],
      "name": "ownerOf",
      "outputs": [
        {
          "internalType": "address",
          "name": "",
          "type": "address"
        }
      ],
      "stateMutability": "view",
      "type": "function",
      "constant": true
    },
    {
      "inputs": [
        {
          "internalType": "address",
          "name": "from",
          "type": "address"
        },
        {
          "internalType": "address",
          "name": "to",
          "type": "address"
        },
        {
          "internalType": "uint256",
          "name": "tokenId",
          "type": "uint256"
        }
      ],
      "name": "safeTransferFrom",
      "outputs": [],
      "stateMutability": "nonpayable",
      "type": "function"
    },
    {
      "inputs": [
        {
          "internalType": "address",
          "name": "from",
          "type": "address"
        },
        {
          "internalType": "address",
          "name": "to",
          "type": "address"
        },
        {
          "internalType": "uint256",
          "name": "tokenId",
          "type": "uint256"
        },
        {
          "internalType": "bytes",
          "name": "_data",
          "type": "bytes"
        }
      ],
      "name": "safeTransferFrom",
      "outputs": [],
      "stateMutability": "nonpayable",
      "type": "function"
    },
    {
      "inputs": [
        {
          "internalType": "address",
          "name": "operator",
          "type": "address"
        },
        {
          "internalType": "bool",
          "name": "approved",
          "type": "bool"
        }
      ],
      "name": "setApprovalForAll",
      "outputs": [],
      "stateMutability": "nonpayable",
      "type": "function"
    },
    {
      "inputs": [],
      "name": "symbol",
      "outputs": [
        {
          "internalType": "string",
          "name": "",
          "type": "string"
        }
      ],
      "stateMutability": "view",
      "type": "function",
      "constant": true
    },
    {
      "inputs": [
        {
          "internalType": "uint256",
          "name": "index",
          "type": "uint256"
        }
      ],
      "name": "tokenByIndex",
      "outputs": [
        {
          "internalType": "uint256",
          "name": "",
          "type": "uint256"
        }
      ],
      "stateMutability": "view",
      "type": "function",
      "constant": true
    },
    {
      "inputs": [
        {
          "internalType": "address",
          "name": "owner",
          "type": "address"
        },
        {
          "internalType": "uint256",
          "name": "index",
          "type": "uint256"
        }
      ],
      "name": "tokenOfOwnerByIndex",
      "outputs": [
        {
          "internalType": "uint256",
          "name": "",
          "type": "uint256"
        }
      ],
      "stateMutability": "view",
      "type": "function",
      "constant": true
    },
    {
      "inputs": [
        {
          "internalType": "uint256",
          "name": "tokenId",
          "type": "uint256"
        }
      ],
      "name": "tokenURI",
      "outputs": [
        {
          "internalType": "string",
          "name": "",
          "type": "string"
        }
      ],
      "stateMutability": "view",
      "type": "function",
      "constant": true
    },
    {
      "inputs": [],
      "name": "totalSupply",
      "outputs": [
        {
          "internalType": "uint256",
          "name": "",
          "type": "uint256"
        }
      ],
      "stateMutability": "view",
      "type": "function",
      "constant": true
    },
    {
      "inputs": [
        {
          "internalType": "address",
          "name": "from",
          "type": "address"
        },
        {
          "internalType": "address",
          "name": "to",
          "type": "address"
        },
        {
          "internalType": "uint256",
          "name": "tokenId",
          "type": "uint256"
        }
      ],
      "name": "transferFrom",
      "outputs": [],
      "stateMutability": "nonpayable",
      "type": "function"
    },
    {
      "inputs": [
        {
          "internalType": "bytes4",
          "name": "interfaceId",
          "type": "bytes4"
        }
      ],
      "name": "supportsInterface",
      "outputs": [
        {
          "internalType": "bool",
          "name": "",
          "type": "bool"
        }
      ],
      "stateMutability": "view",
      "type": "function",
      "constant": true
    },
    {
      "inputs": [
        {
          "internalType": "string",
          "name": "_color",
          "type": "string"
        }
      ],
      "name": "mint",
      "outputs": [],
      "stateMutability": "nonpayable",
      "type": "function"
    },
    {
      "inputs": [
        {
          "internalType": "uint256",
          "name": "_id",
          "type": "uint256"
        },
        {
          "internalType": "bool",
          "name": "_newStatus",
          "type": "bool"
        }
      ],
      "name": "sale",
      "outputs": [],
      "stateMutability": "nonpayable",
      "type": "function"
    },
    {
      "inputs": [
        {
          "internalType": "uint256",
          "name": "_id",
          "type": "uint256"
        },
        {
          "internalType": "bool",
          "name": "_newStatus",
          "type": "bool"
        }
      ],
      "name": "buy",
      "outputs": [],
      "stateMutability": "nonpayable",
      "type": "function"
    },
    {
      "inputs": [
        {
          "internalType": "uint256",
          "name": "_id",
          "type": "uint256"
        },
        {
          "internalType": "uint256",
          "name": "_newPrice",
          "type": "uint256"
        }
      ],
      "name": "changePrice",
      "outputs": [
        {
          "internalType": "bool",
          "name": "",
          "type": "bool"
        }
      ],
      "stateMutability": "nonpayable",
      "type": "function"
    },
    {
      "inputs": [
        {
          "internalType": "address payable",
          "name": "_owner",
          "type": "address"
        },
        {
          "internalType": "uint256",
          "name": "_id",
          "type": "uint256"
        }
      ],
      "name": "transfer",
      "outputs": [],
      "stateMutability": "payable",
      "type": "function",
      "payable": true
    }
  ],
  "bytecode": "0x60806040526000600d553480156200001657600080fd5b506040518060400160405280600581526020017f436f6c6f720000000000000000000000000000000000000000000000000000008152506040518060400160405280600581526020017f434f4c4f5200000000000000000000000000000000000000000000000000000081525081600090805190602001906200009b929190620000fe565b508060019080519060200190620000b4929190620000fe565b50505033600b60006101000a81548173ffffffffffffffffffffffffffffffffffffffff021916908373ffffffffffffffffffffffffffffffffffffffff16021790555062000213565b8280546200010c90620001ae565b90600052602060002090601f0160209004810192826200013057600085556200017c565b82601f106200014b57805160ff19168380011785556200017c565b828001600101855582156200017c579182015b828111156200017b5782518255916020019190600101906200015e565b5b5090506200018b91906200018f565b5090565b5b80821115620001aa57600081600090555060010162000190565b5090565b60006002820490506001821680620001c757607f821691505b60208210811415620001de57620001dd620001e4565b5b50919050565b7f4e487b7100000000000000000000000000000000000000000000000000000000600052602260045260246000fd5b6142aa80620002236000396000f3fe6080604052600436106101665760003560e01c80636977fb69116100d1578063b3de019c1161008a578063c661065711610064578063c661065714610565578063c87b56dd146105a6578063d85d3d27146105e3578063e985e9c51461060c57610166565b8063b3de019c146104c2578063b88d4fde146104ff578063bd11f69d1461052857610166565b80636977fb69146103c157806370a08231146103ea5780638da5cb5b1461042757806395d89b4114610452578063a22cb4651461047d578063a9059cbb146104a657610166565b80632f745c59116101235780632f745c591461028d57806331c26b11146102ca57806342842e0e146102f3578063455ef8f91461031c5780634f6ccce7146103475780636352211e1461038457610166565b806301ffc9a71461016b57806306fdde03146101a8578063081812fc146101d3578063095ea7b31461021057806318160ddd1461023957806323b872dd14610264575b600080fd5b34801561017757600080fd5b50610192600480360381019061018d9190613130565b610649565b60405161019f9190613631565b60405180910390f35b3480156101b457600080fd5b506101bd61065b565b6040516101ca919061364c565b60405180910390f35b3480156101df57600080fd5b506101fa60048036038101906101f591906131d3565b6106ed565b60405161020791906135ca565b60405180910390f35b34801561021c57600080fd5b50610237600480360381019061023291906130f0565b610772565b005b34801561024557600080fd5b5061024e61088a565b60405161025b919061386e565b60405180910390f35b34801561027057600080fd5b5061028b60048036038101906102869190612fda565b610897565b005b34801561029957600080fd5b506102b460048036038101906102af91906130f0565b6108f7565b6040516102c1919061386e565b60405180910390f35b3480156102d657600080fd5b506102f160048036038101906102ec9190613200565b61099c565b005b3480156102ff57600080fd5b5061031a60048036038101906103159190612fda565b610c27565b005b34801561032857600080fd5b50610331610c47565b60405161033e919061386e565b60405180910390f35b34801561035357600080fd5b5061036e600480360381019061036991906131d3565b610c4d565b60405161037b919061386e565b60405180910390f35b34801561039057600080fd5b506103ab60048036038101906103a691906131d3565b610cbe565b6040516103b891906135ca565b60405180910390f35b3480156103cd57600080fd5b506103e860048036038101906103e39190613200565b610d70565b005b3480156103f657600080fd5b50610411600480360381019061040c9190612f2d565b610fc2565b60405161041e919061386e565b60405180910390f35b34801561043357600080fd5b5061043c61107a565b60405161044991906135ca565b60405180910390f35b34801561045e57600080fd5b506104676110a0565b604051610474919061364c565b60405180910390f35b34801561048957600080fd5b506104a4600480360381019061049f91906130b0565b611132565b005b6104c060048036038101906104bb9190612f5a565b6112b3565b005b3480156104ce57600080fd5b506104e960048036038101906104e49190613240565b6115d4565b6040516104f69190613631565b60405180910390f35b34801561050b57600080fd5b506105266004803603810190610521919061302d565b611824565b005b34801561053457600080fd5b5061054f600480360381019061054a91906131d3565b611886565b60405161055c919061364c565b60405180910390f35b34801561057157600080fd5b5061058c600480360381019061058791906131d3565b611932565b60405161059d9594939291906138c0565b60405180910390f35b3480156105b257600080fd5b506105cd60048036038101906105c891906131d3565b611a1d565b6040516105da919061364c565b60405180910390f35b3480156105ef57600080fd5b5061060a6004803603810190610605919061318a565b611ac4565b005b34801561061857600080fd5b50610633600480360381019061062e9190612f9a565b611cf0565b6040516106409190613631565b60405180910390f35b600061065482611d84565b9050919050565b60606000805461066a90613b67565b80601f016020809104026020016040519081016040528092919081815260200182805461069690613b67565b80156106e35780601f106106b8576101008083540402835291602001916106e3565b820191906000526020600020905b8154815290600101906020018083116106c657829003601f168201915b5050505050905090565b60006106f882611dfe565b610737576040517f08c379a000000000000000000000000000000000000000000000000000000000815260040161072e906137ae565b60405180910390fd5b6004600083815260200190815260200160002060009054906101000a900473ffffffffffffffffffffffffffffffffffffffff169050919050565b600061077d82610cbe565b90508073ffffffffffffffffffffffffffffffffffffffff168373ffffffffffffffffffffffffffffffffffffffff1614156107ee576040517f08c379a00000000000000000000000000000000000000000000000000000000081526004016107e59061380e565b60405180910390fd5b8073ffffffffffffffffffffffffffffffffffffffff1661080d611e6a565b73ffffffffffffffffffffffffffffffffffffffff16148061083c575061083b81610836611e6a565b611cf0565b5b61087b576040517f08c379a00000000000000000000000000000000000000000000000000000000081526004016108729061372e565b60405180910390fd5b6108858383611e72565b505050565b6000600880549050905090565b6108a86108a2611e6a565b82611f2b565b6108e7576040517f08c379a00000000000000000000000000000000000000000000000000000000081526004016108de9061382e565b60405180910390fd5b6108f2838383612009565b505050565b600061090283610fc2565b8210610943576040517f08c379a000000000000000000000000000000000000000000000000000000000815260040161093a9061366e565b60405180910390fd5b600660008473ffffffffffffffffffffffffffffffffffffffff1673ffffffffffffffffffffffffffffffffffffffff168152602001908152602001600020600083815260200190815260200160002054905092915050565b6109a582610cbe565b73ffffffffffffffffffffffffffffffffffffffff163373ffffffffffffffffffffffffffffffffffffffff1614156109dd57600080fd5b6000600e60008481526020019081526020016000206040518060a00160405290816000820154815260200160018201548152602001600282018054610a2190613b67565b80601f0160208091040260200160405190810160405280929190818152602001828054610a4d90613b67565b8015610a9a5780601f10610a6f57610100808354040283529160200191610a9a565b820191906000526020600020905b815481529060010190602001808311610a7d57829003601f168201915b505050505081526020016003820160009054906101000a900473ffffffffffffffffffffffffffffffffffffffff1673ffffffffffffffffffffffffffffffffffffffff1673ffffffffffffffffffffffffffffffffffffffff1681526020016003820160149054906101000a900460ff1615151515815250509050811515816080015115151415610b2b57600080fd5b8181608001901515908115158152505033816060019073ffffffffffffffffffffffffffffffffffffffff16908173ffffffffffffffffffffffffffffffffffffffff168152505080600e600085815260200190815260200160002060008201518160000155602082015181600101556040820151816002019080519060200190610bb7929190612d2c565b5060608201518160030160006101000a81548173ffffffffffffffffffffffffffffffffffffffff021916908373ffffffffffffffffffffffffffffffffffffffff16021790555060808201518160030160146101000a81548160ff021916908315150217905550905050505050565b610c4283838360405180602001604052806000815250611824565b505050565b600d5481565b6000610c5761088a565b8210610c98576040517f08c379a0000000000000000000000000000000000000000000000000000000008152600401610c8f9061384e565b60405180910390fd5b60088281548110610cac57610cab613d00565b5b90600052602060002001549050919050565b6000806002600084815260200190815260200160002060009054906101000a900473ffffffffffffffffffffffffffffffffffffffff169050600073ffffffffffffffffffffffffffffffffffffffff168173ffffffffffffffffffffffffffffffffffffffff161415610d67576040517f08c379a0000000000000000000000000000000000000000000000000000000008152600401610d5e9061376e565b60405180910390fd5b80915050919050565b610d7982610cbe565b73ffffffffffffffffffffffffffffffffffffffff163373ffffffffffffffffffffffffffffffffffffffff1614610db057600080fd5b6000600e60008481526020019081526020016000206040518060a00160405290816000820154815260200160018201548152602001600282018054610df490613b67565b80601f0160208091040260200160405190810160405280929190818152602001828054610e2090613b67565b8015610e6d5780601f10610e4257610100808354040283529160200191610e6d565b820191906000526020600020905b815481529060010190602001808311610e5057829003601f168201915b505050505081526020016003820160009054906101000a900473ffffffffffffffffffffffffffffffffffffffff1673ffffffffffffffffffffffffffffffffffffffff1673ffffffffffffffffffffffffffffffffffffffff1681526020016003820160149054906101000a900460ff1615151515815250509050811515816080015115151415610efe57600080fd5b8181608001901515908115158152505080600e600085815260200190815260200160002060008201518160000155602082015181600101556040820151816002019080519060200190610f52929190612d2c565b5060608201518160030160006101000a81548173ffffffffffffffffffffffffffffffffffffffff021916908373ffffffffffffffffffffffffffffffffffffffff16021790555060808201518160030160146101000a81548160ff021916908315150217905550905050505050565b60008073ffffffffffffffffffffffffffffffffffffffff168273ffffffffffffffffffffffffffffffffffffffff161415611033576040517f08c379a000000000000000000000000000000000000000000000000000000000815260040161102a9061374e565b60405180910390fd5b600360008373ffffffffffffffffffffffffffffffffffffffff1673ffffffffffffffffffffffffffffffffffffffff168152602001908152602001600020549050919050565b600b60009054906101000a900473ffffffffffffffffffffffffffffffffffffffff1681565b6060600180546110af90613b67565b80601f01602080910402602001604051908101604052809291908181526020018280546110db90613b67565b80156111285780601f106110fd57610100808354040283529160200191611128565b820191906000526020600020905b81548152906001019060200180831161110b57829003601f168201915b5050505050905090565b61113a611e6a565b73ffffffffffffffffffffffffffffffffffffffff168273ffffffffffffffffffffffffffffffffffffffff1614156111a8576040517f08c379a000000000000000000000000000000000000000000000000000000000815260040161119f906136ee565b60405180910390fd5b80600560006111b5611e6a565b73ffffffffffffffffffffffffffffffffffffffff1673ffffffffffffffffffffffffffffffffffffffff16815260200190815260200160002060008473ffffffffffffffffffffffffffffffffffffffff1673ffffffffffffffffffffffffffffffffffffffff16815260200190815260200160002060006101000a81548160ff0219169083151502179055508173ffffffffffffffffffffffffffffffffffffffff16611262611e6a565b73ffffffffffffffffffffffffffffffffffffffff167f17307eab39ab6107e8899845ad3d59bd9653f200f220920489ca2b5937696c31836040516112a79190613631565b60405180910390a35050565b6000600e60008381526020019081526020016000206040518060a001604052908160008201548152602001600182015481526020016002820180546112f790613b67565b80601f016020809104026020016040519081016040528092919081815260200182805461132390613b67565b80156113705780601f1061134557610100808354040283529160200191611370565b820191906000526020600020905b81548152906001019060200180831161135357829003601f168201915b505050505081526020016003820160009054906101000a900473ffffffffffffffffffffffffffffffffffffffff1673ffffffffffffffffffffffffffffffffffffffff1673ffffffffffffffffffffffffffffffffffffffff1681526020016003820160149054906101000a900460ff1615151515815250509050600081604001519050816080015161140357600080fd5b600c81604051611413919061358f565b908152602001604051809103902060009054906101000a900460ff1661143857600080fd5b816020015134101561144957600080fd5b611454843385612009565b8373ffffffffffffffffffffffffffffffffffffffff166108fc349081150290604051600060405180830381858888f1935050505015801561149a573d6000803e3d6000fd5b50600082608001901515908115158152505033826060019073ffffffffffffffffffffffffffffffffffffffff16908173ffffffffffffffffffffffffffffffffffffffff168152505081600e600085815260200190815260200160002060008201518160000155602082015181600101556040820151816002019080519060200190611528929190612d2c565b5060608201518160030160006101000a81548173ffffffffffffffffffffffffffffffffffffffff021916908373ffffffffffffffffffffffffffffffffffffffff16021790555060808201518160030160146101000a81548160ff0219169083151502179055509050507fc6c6b3edda909266a5318852aa7d9dc6cf91b0b0121eca2fa864b66946f3c9228334866040516115c693929190613889565b60405180910390a150505050565b60006115df83610cbe565b73ffffffffffffffffffffffffffffffffffffffff163373ffffffffffffffffffffffffffffffffffffffff161461161657600080fd5b6000600e60008581526020019081526020016000206040518060a0016040529081600082015481526020016001820154815260200160028201805461165a90613b67565b80601f016020809104026020016040519081016040528092919081815260200182805461168690613b67565b80156116d35780601f106116a8576101008083540402835291602001916116d3565b820191906000526020600020905b8154815290600101906020018083116116b657829003601f168201915b505050505081526020016003820160009054906101000a900473ffffffffffffffffffffffffffffffffffffffff1673ffffffffffffffffffffffffffffffffffffffff1673ffffffffffffffffffffffffffffffffffffffff1681526020016003820160149054906101000a900460ff1615151515815250509050828160200151141561176057600080fd5b8281602001818152505080600e6000868152602001908152602001600020600082015181600001556020820151816001015560408201518160020190805190602001906117ae929190612d2c565b5060608201518160030160006101000a81548173ffffffffffffffffffffffffffffffffffffffff021916908373ffffffffffffffffffffffffffffffffffffffff16021790555060808201518160030160146101000a81548160ff021916908315150217905550905050600191505092915050565b61183561182f611e6a565b83611f2b565b611874576040517f08c379a000000000000000000000000000000000000000000000000000000000815260040161186b9061382e565b60405180910390fd5b61188084848484612265565b50505050565b600a818154811061189657600080fd5b9060005260206000200160009150905080546118b190613b67565b80601f01602080910402602001604051908101604052809291908181526020018280546118dd90613b67565b801561192a5780601f106118ff5761010080835404028352916020019161192a565b820191906000526020600020905b81548152906001019060200180831161190d57829003601f168201915b505050505081565b600e60205280600052604060002060009150905080600001549080600101549080600201805461196190613b67565b80601f016020809104026020016040519081016040528092919081815260200182805461198d90613b67565b80156119da5780601f106119af576101008083540402835291602001916119da565b820191906000526020600020905b8154815290600101906020018083116119bd57829003601f168201915b5050505050908060030160009054906101000a900473ffffffffffffffffffffffffffffffffffffffff16908060030160149054906101000a900460ff16905085565b6060611a2882611dfe565b611a67576040517f08c379a0000000000000000000000000000000000000000000000000000000008152600401611a5e906137ee565b60405180910390fd5b6000611a716122c1565b90506000815111611a915760405180602001604052806000815250611abc565b80611a9b846122d8565b604051602001611aac9291906135a6565b6040516020818303038152906040525b915050919050565b600b60009054906101000a900473ffffffffffffffffffffffffffffffffffffffff1673ffffffffffffffffffffffffffffffffffffffff163373ffffffffffffffffffffffffffffffffffffffff1614611b1e57600080fd5b600c81604051611b2e919061358f565b908152602001604051809103902060009054906101000a900460ff1615611b5457600080fd5b600a81908060018154018082558091505060019003906000526020600020016000909190919091509080519060200190611b8f929190612d2c565b506000600a805490509050611ba43382612439565b6001600c83604051611bb6919061358f565b908152602001604051809103902060006101000a81548160ff021916908315150217905550600d6000815480929190611bee90613bca565b919050555060006040518060a00160405280600d548152602001600081526020018481526020013373ffffffffffffffffffffffffffffffffffffffff16815260200160001515815250905080600e6000600d54815260200190815260200160002060008201518160000155602082015181600101556040820151816002019080519060200190611c80929190612d2c565b5060608201518160030160006101000a81548173ffffffffffffffffffffffffffffffffffffffff021916908373ffffffffffffffffffffffffffffffffffffffff16021790555060808201518160030160146101000a81548160ff021916908315150217905550905050505050565b6000600560008473ffffffffffffffffffffffffffffffffffffffff1673ffffffffffffffffffffffffffffffffffffffff16815260200190815260200160002060008373ffffffffffffffffffffffffffffffffffffffff1673ffffffffffffffffffffffffffffffffffffffff16815260200190815260200160002060009054906101000a900460ff16905092915050565b60007f780e9d63000000000000000000000000000000000000000000000000000000007bffffffffffffffffffffffffffffffffffffffffffffffffffffffff1916827bffffffffffffffffffffffffffffffffffffffffffffffffffffffff19161480611df75750611df682612607565b5b9050919050565b60008073ffffffffffffffffffffffffffffffffffffffff166002600084815260200190815260200160002060009054906101000a900473ffffffffffffffffffffffffffffffffffffffff1673ffffffffffffffffffffffffffffffffffffffff1614159050919050565b600033905090565b816004600083815260200190815260200160002060006101000a81548173ffffffffffffffffffffffffffffffffffffffff021916908373ffffffffffffffffffffffffffffffffffffffff160217905550808273ffffffffffffffffffffffffffffffffffffffff16611ee583610cbe565b73ffffffffffffffffffffffffffffffffffffffff167f8c5be1e5ebec7d5bd14f71427d1e84f3dd0314c0f7b2291e5b200ac8c7c3b92560405160405180910390a45050565b6000611f3682611dfe565b611f75576040517f08c379a0000000000000000000000000000000000000000000000000000000008152600401611f6c9061370e565b60405180910390fd5b6000611f8083610cbe565b90508073ffffffffffffffffffffffffffffffffffffffff168473ffffffffffffffffffffffffffffffffffffffff161480611fef57508373ffffffffffffffffffffffffffffffffffffffff16611fd7846106ed565b73ffffffffffffffffffffffffffffffffffffffff16145b806120005750611fff8185611cf0565b5b91505092915050565b8273ffffffffffffffffffffffffffffffffffffffff1661202982610cbe565b73ffffffffffffffffffffffffffffffffffffffff161461207f576040517f08c379a0000000000000000000000000000000000000000000000000000000008152600401612076906137ce565b60405180910390fd5b600073ffffffffffffffffffffffffffffffffffffffff168273ffffffffffffffffffffffffffffffffffffffff1614156120ef576040517f08c379a00000000000000000000000000000000000000000000000000000000081526004016120e6906136ce565b60405180910390fd5b6120fa8383836126e9565b612105600082611e72565b6001600360008573ffffffffffffffffffffffffffffffffffffffff1673ffffffffffffffffffffffffffffffffffffffff16815260200190815260200160002060008282546121559190613a6b565b925050819055506001600360008473ffffffffffffffffffffffffffffffffffffffff1673ffffffffffffffffffffffffffffffffffffffff16815260200190815260200160002060008282546121ac91906139e4565b92505081905550816002600083815260200190815260200160002060006101000a81548173ffffffffffffffffffffffffffffffffffffffff021916908373ffffffffffffffffffffffffffffffffffffffff160217905550808273ffffffffffffffffffffffffffffffffffffffff168473ffffffffffffffffffffffffffffffffffffffff167fddf252ad1be2c89b69c2b068fc378daa952ba7f163c4a11628f55a4df523b3ef60405160405180910390a4505050565b612270848484612009565b61227c848484846126f9565b6122bb576040517f08c379a00000000000000000000000000000000000000000000000000000000081526004016122b29061368e565b60405180910390fd5b50505050565b606060405180602001604052806000815250905090565b60606000821415612320576040518060400160405280600181526020017f30000000000000000000000000000000000000000000000000000000000000008152509050612434565b600082905060005b6000821461235257808061233b90613bca565b915050600a8261234b9190613a3a565b9150612328565b60008167ffffffffffffffff81111561236e5761236d613d2f565b5b6040519080825280601f01601f1916602001820160405280156123a05781602001600182028036833780820191505090505b5090505b6000851461242d576001826123b99190613a6b565b9150600a856123c89190613c13565b60306123d491906139e4565b60f81b8183815181106123ea576123e9613d00565b5b60200101907effffffffffffffffffffffffffffffffffffffffffffffffffffffffffffff1916908160001a905350600a856124269190613a3a565b94506123a4565b8093505050505b919050565b600073ffffffffffffffffffffffffffffffffffffffff168273ffffffffffffffffffffffffffffffffffffffff1614156124a9576040517f08c379a00000000000000000000000000000000000000000000000000000000081526004016124a09061378e565b60405180910390fd5b6124b281611dfe565b156124f2576040517f08c379a00000000000000000000000000000000000000000000000000000000081526004016124e9906136ae565b60405180910390fd5b6124fe600083836126e9565b6001600360008473ffffffffffffffffffffffffffffffffffffffff1673ffffffffffffffffffffffffffffffffffffffff168152602001908152602001600020600082825461254e91906139e4565b92505081905550816002600083815260200190815260200160002060006101000a81548173ffffffffffffffffffffffffffffffffffffffff021916908373ffffffffffffffffffffffffffffffffffffffff160217905550808273ffffffffffffffffffffffffffffffffffffffff16600073ffffffffffffffffffffffffffffffffffffffff167fddf252ad1be2c89b69c2b068fc378daa952ba7f163c4a11628f55a4df523b3ef60405160405180910390a45050565b60007f80ac58cd000000000000000000000000000000000000000000000000000000007bffffffffffffffffffffffffffffffffffffffffffffffffffffffff1916827bffffffffffffffffffffffffffffffffffffffffffffffffffffffff191614806126d257507f5b5e139f000000000000000000000000000000000000000000000000000000007bffffffffffffffffffffffffffffffffffffffffffffffffffffffff1916827bffffffffffffffffffffffffffffffffffffffffffffffffffffffff1916145b806126e257506126e182612890565b5b9050919050565b6126f48383836128fa565b505050565b600061271a8473ffffffffffffffffffffffffffffffffffffffff16612a0e565b15612883578373ffffffffffffffffffffffffffffffffffffffff1663150b7a02612743611e6a565b8786866040518563ffffffff1660e01b815260040161276594939291906135e5565b602060405180830381600087803b15801561277f57600080fd5b505af19250505080156127b057506040513d601f19601f820116820180604052508101906127ad919061315d565b60015b612833573d80600081146127e0576040519150601f19603f3d011682016040523d82523d6000602084013e6127e5565b606091505b5060008151141561282b576040517f08c379a00000000000000000000000000000000000000000000000000000000081526004016128229061368e565b60405180910390fd5b805181602001fd5b63150b7a0260e01b7bffffffffffffffffffffffffffffffffffffffffffffffffffffffff1916817bffffffffffffffffffffffffffffffffffffffffffffffffffffffff191614915050612888565b600190505b949350505050565b60007f01ffc9a7000000000000000000000000000000000000000000000000000000007bffffffffffffffffffffffffffffffffffffffffffffffffffffffff1916827bffffffffffffffffffffffffffffffffffffffffffffffffffffffff1916149050919050565b612905838383612a21565b600073ffffffffffffffffffffffffffffffffffffffff168373ffffffffffffffffffffffffffffffffffffffff1614156129485761294381612a26565b612987565b8173ffffffffffffffffffffffffffffffffffffffff168373ffffffffffffffffffffffffffffffffffffffff1614612986576129858382612a6f565b5b5b600073ffffffffffffffffffffffffffffffffffffffff168273ffffffffffffffffffffffffffffffffffffffff1614156129ca576129c581612bdc565b612a09565b8273ffffffffffffffffffffffffffffffffffffffff168273ffffffffffffffffffffffffffffffffffffffff1614612a0857612a078282612cad565b5b5b505050565b600080823b905060008111915050919050565b505050565b6008805490506009600083815260200190815260200160002081905550600881908060018154018082558091505060019003906000526020600020016000909190919091505550565b60006001612a7c84610fc2565b612a869190613a6b565b9050600060076000848152602001908152602001600020549050818114612b6b576000600660008673ffffffffffffffffffffffffffffffffffffffff1673ffffffffffffffffffffffffffffffffffffffff168152602001908152602001600020600084815260200190815260200160002054905080600660008773ffffffffffffffffffffffffffffffffffffffff1673ffffffffffffffffffffffffffffffffffffffff168152602001908152602001600020600084815260200190815260200160002081905550816007600083815260200190815260200160002081905550505b6007600084815260200190815260200160002060009055600660008573ffffffffffffffffffffffffffffffffffffffff1673ffffffffffffffffffffffffffffffffffffffff16815260200190815260200160002060008381526020019081526020016000206000905550505050565b60006001600880549050612bf09190613a6b565b9050600060096000848152602001908152602001600020549050600060088381548110612c2057612c1f613d00565b5b906000526020600020015490508060088381548110612c4257612c41613d00565b5b906000526020600020018190555081600960008381526020019081526020016000208190555060096000858152602001908152602001600020600090556008805480612c9157612c90613cd1565b5b6001900381819060005260206000200160009055905550505050565b6000612cb883610fc2565b905081600660008573ffffffffffffffffffffffffffffffffffffffff1673ffffffffffffffffffffffffffffffffffffffff168152602001908152602001600020600083815260200190815260200160002081905550806007600084815260200190815260200160002081905550505050565b828054612d3890613b67565b90600052602060002090601f016020900481019282612d5a5760008555612da1565b82601f10612d7357805160ff1916838001178555612da1565b82800160010185558215612da1579182015b82811115612da0578251825591602001919060010190612d85565b5b509050612dae9190612db2565b5090565b5b80821115612dcb576000816000905550600101612db3565b5090565b6000612de2612ddd8461393f565b61391a565b905082815260208101848484011115612dfe57612dfd613d63565b5b612e09848285613b25565b509392505050565b6000612e24612e1f84613970565b61391a565b905082815260208101848484011115612e4057612e3f613d63565b5b612e4b848285613b25565b509392505050565b600081359050612e6281614201565b92915050565b600081359050612e7781614218565b92915050565b600081359050612e8c8161422f565b92915050565b600081359050612ea181614246565b92915050565b600081519050612eb681614246565b92915050565b600082601f830112612ed157612ed0613d5e565b5b8135612ee1848260208601612dcf565b91505092915050565b600082601f830112612eff57612efe613d5e565b5b8135612f0f848260208601612e11565b91505092915050565b600081359050612f278161425d565b92915050565b600060208284031215612f4357612f42613d6d565b5b6000612f5184828501612e53565b91505092915050565b60008060408385031215612f7157612f70613d6d565b5b6000612f7f85828601612e68565b9250506020612f9085828601612f18565b9150509250929050565b60008060408385031215612fb157612fb0613d6d565b5b6000612fbf85828601612e53565b9250506020612fd085828601612e53565b9150509250929050565b600080600060608486031215612ff357612ff2613d6d565b5b600061300186828701612e53565b935050602061301286828701612e53565b925050604061302386828701612f18565b9150509250925092565b6000806000806080858703121561304757613046613d6d565b5b600061305587828801612e53565b945050602061306687828801612e53565b935050604061307787828801612f18565b925050606085013567ffffffffffffffff81111561309857613097613d68565b5b6130a487828801612ebc565b91505092959194509250565b600080604083850312156130c7576130c6613d6d565b5b60006130d585828601612e53565b92505060206130e685828601612e7d565b9150509250929050565b6000806040838503121561310757613106613d6d565b5b600061311585828601612e53565b925050602061312685828601612f18565b9150509250929050565b60006020828403121561314657613145613d6d565b5b600061315484828501612e92565b91505092915050565b60006020828403121561317357613172613d6d565b5b600061318184828501612ea7565b91505092915050565b6000602082840312156131a05761319f613d6d565b5b600082013567ffffffffffffffff8111156131be576131bd613d68565b5b6131ca84828501612eea565b91505092915050565b6000602082840312156131e9576131e8613d6d565b5b60006131f784828501612f18565b91505092915050565b6000806040838503121561321757613216613d6d565b5b600061322585828601612f18565b925050602061323685828601612e7d565b9150509250929050565b6000806040838503121561325757613256613d6d565b5b600061326585828601612f18565b925050602061327685828601612f18565b9150509250929050565b61328981613ab1565b82525050565b61329881613a9f565b82525050565b6132a781613ac3565b82525050565b60006132b8826139a1565b6132c281856139b7565b93506132d2818560208601613b34565b6132db81613d72565b840191505092915050565b60006132f1826139ac565b6132fb81856139c8565b935061330b818560208601613b34565b61331481613d72565b840191505092915050565b600061332a826139ac565b61333481856139d9565b9350613344818560208601613b34565b80840191505092915050565b600061335d602b836139c8565b915061336882613d83565b604082019050919050565b60006133806032836139c8565b915061338b82613dd2565b604082019050919050565b60006133a3601c836139c8565b91506133ae82613e21565b602082019050919050565b60006133c66024836139c8565b91506133d182613e4a565b604082019050919050565b60006133e96019836139c8565b91506133f482613e99565b602082019050919050565b600061340c602c836139c8565b915061341782613ec2565b604082019050919050565b600061342f6038836139c8565b915061343a82613f11565b604082019050919050565b6000613452602a836139c8565b915061345d82613f60565b604082019050919050565b60006134756029836139c8565b915061348082613faf565b604082019050919050565b60006134986020836139c8565b91506134a382613ffe565b602082019050919050565b60006134bb602c836139c8565b91506134c682614027565b604082019050919050565b60006134de6029836139c8565b91506134e982614076565b604082019050919050565b6000613501602f836139c8565b915061350c826140c5565b604082019050919050565b60006135246021836139c8565b915061352f82614114565b604082019050919050565b60006135476031836139c8565b915061355282614163565b604082019050919050565b600061356a602c836139c8565b9150613575826141b2565b604082019050919050565b61358981613b1b565b82525050565b600061359b828461331f565b915081905092915050565b60006135b2828561331f565b91506135be828461331f565b91508190509392505050565b60006020820190506135df600083018461328f565b92915050565b60006080820190506135fa600083018761328f565b613607602083018661328f565b6136146040830185613580565b818103606083015261362681846132ad565b905095945050505050565b6000602082019050613646600083018461329e565b92915050565b6000602082019050818103600083015261366681846132e6565b905092915050565b6000602082019050818103600083015261368781613350565b9050919050565b600060208201905081810360008301526136a781613373565b9050919050565b600060208201905081810360008301526136c781613396565b9050919050565b600060208201905081810360008301526136e7816133b9565b9050919050565b60006020820190508181036000830152613707816133dc565b9050919050565b60006020820190508181036000830152613727816133ff565b9050919050565b6000602082019050818103600083015261374781613422565b9050919050565b6000602082019050818103600083015261376781613445565b9050919050565b6000602082019050818103600083015261378781613468565b9050919050565b600060208201905081810360008301526137a78161348b565b9050919050565b600060208201905081810360008301526137c7816134ae565b9050919050565b600060208201905081810360008301526137e7816134d1565b9050919050565b60006020820190508181036000830152613807816134f4565b9050919050565b6000602082019050818103600083015261382781613517565b9050919050565b600060208201905081810360008301526138478161353a565b9050919050565b600060208201905081810360008301526138678161355d565b9050919050565b60006020820190506138836000830184613580565b92915050565b600060608201905061389e6000830186613580565b6138ab6020830185613580565b6138b86040830184613280565b949350505050565b600060a0820190506138d56000830188613580565b6138e26020830187613580565b81810360408301526138f481866132e6565b9050613903606083018561328f565b613910608083018461329e565b9695505050505050565b6000613924613935565b90506139308282613b99565b919050565b6000604051905090565b600067ffffffffffffffff82111561395a57613959613d2f565b5b61396382613d72565b9050602081019050919050565b600067ffffffffffffffff82111561398b5761398a613d2f565b5b61399482613d72565b9050602081019050919050565b600081519050919050565b600081519050919050565b600082825260208201905092915050565b600082825260208201905092915050565b600081905092915050565b60006139ef82613b1b565b91506139fa83613b1b565b9250827fffffffffffffffffffffffffffffffffffffffffffffffffffffffffffffffff03821115613a2f57613a2e613c44565b5b828201905092915050565b6000613a4582613b1b565b9150613a5083613b1b565b925082613a6057613a5f613c73565b5b828204905092915050565b6000613a7682613b1b565b9150613a8183613b1b565b925082821015613a9457613a93613c44565b5b828203905092915050565b6000613aaa82613afb565b9050919050565b6000613abc82613afb565b9050919050565b60008115159050919050565b60007fffffffff0000000000000000000000000000000000000000000000000000000082169050919050565b600073ffffffffffffffffffffffffffffffffffffffff82169050919050565b6000819050919050565b82818337600083830152505050565b60005b83811015613b52578082015181840152602081019050613b37565b83811115613b61576000848401525b50505050565b60006002820490506001821680613b7f57607f821691505b60208210811415613b9357613b92613ca2565b5b50919050565b613ba282613d72565b810181811067ffffffffffffffff82111715613bc157613bc0613d2f565b5b80604052505050565b6000613bd582613b1b565b91507fffffffffffffffffffffffffffffffffffffffffffffffffffffffffffffffff821415613c0857613c07613c44565b5b600182019050919050565b6000613c1e82613b1b565b9150613c2983613b1b565b925082613c3957613c38613c73565b5b828206905092915050565b7f4e487b7100000000000000000000000000000000000000000000000000000000600052601160045260246000fd5b7f4e487b7100000000000000000000000000000000000000000000000000000000600052601260045260246000fd5b7f4e487b7100000000000000000000000000000000000000000000000000000000600052602260045260246000fd5b7f4e487b7100000000000000000000000000000000000000000000000000000000600052603160045260246000fd5b7f4e487b7100000000000000000000000000000000000000000000000000000000600052603260045260246000fd5b7f4e487b7100000000000000000000000000000000000000000000000000000000600052604160045260246000fd5b600080fd5b600080fd5b600080fd5b600080fd5b6000601f19601f8301169050919050565b7f455243373231456e756d657261626c653a206f776e657220696e646578206f7560008201527f74206f6620626f756e6473000000000000000000000000000000000000000000602082015250565b7f4552433732313a207472616e7366657220746f206e6f6e20455243373231526560008201527f63656976657220696d706c656d656e7465720000000000000000000000000000602082015250565b7f4552433732313a20746f6b656e20616c7265616479206d696e74656400000000600082015250565b7f4552433732313a207472616e7366657220746f20746865207a65726f2061646460008201527f7265737300000000000000000000000000000000000000000000000000000000602082015250565b7f4552433732313a20617070726f766520746f2063616c6c657200000000000000600082015250565b7f4552433732313a206f70657261746f7220717565727920666f72206e6f6e657860008201527f697374656e7420746f6b656e0000000000000000000000000000000000000000602082015250565b7f4552433732313a20617070726f76652063616c6c6572206973206e6f74206f7760008201527f6e6572206e6f7220617070726f76656420666f7220616c6c0000000000000000602082015250565b7f4552433732313a2062616c616e636520717565727920666f7220746865207a6560008201527f726f206164647265737300000000000000000000000000000000000000000000602082015250565b7f4552433732313a206f776e657220717565727920666f72206e6f6e657869737460008201527f656e7420746f6b656e0000000000000000000000000000000000000000000000602082015250565b7f4552433732313a206d696e7420746f20746865207a65726f2061646472657373600082015250565b7f4552433732313a20617070726f76656420717565727920666f72206e6f6e657860008201527f697374656e7420746f6b656e0000000000000000000000000000000000000000602082015250565b7f4552433732313a207472616e73666572206f6620746f6b656e2074686174206960008201527f73206e6f74206f776e0000000000000000000000000000000000000000000000602082015250565b7f4552433732314d657461646174613a2055524920717565727920666f72206e6f60008201527f6e6578697374656e7420746f6b656e0000000000000000000000000000000000602082015250565b7f4552433732313a20617070726f76616c20746f2063757272656e74206f776e6560008201527f7200000000000000000000000000000000000000000000000000000000000000602082015250565b7f4552433732313a207472616e736665722063616c6c6572206973206e6f74206f60008201527f776e6572206e6f7220617070726f766564000000000000000000000000000000602082015250565b7f455243373231456e756d657261626c653a20676c6f62616c20696e646578206f60008201527f7574206f6620626f756e64730000000000000000000000000000000000000000602082015250565b61420a81613a9f565b811461421557600080fd5b50565b61422181613ab1565b811461422c57600080fd5b50565b61423881613ac3565b811461424357600080fd5b50565b61424f81613acf565b811461425a57600080fd5b50565b61426681613b1b565b811461427157600080fd5b5056fea2646970667358221220543b964634fb3139b7de62795313d7348e99ee15ef8a0656a340027bc604f1b564736f6c63430008070033",
  "immutableReferences": {},
  "source": "// SPDX-License-Identifier: MIT\r\n\r\npragma solidity ^0.8.0;\r\n\r\nimport \"@openzeppelin/contracts/token/ERC721/extensions/ERC721Enumerable.sol\";\r\nimport \"@openzeppelin/contracts/token/ERC721/ERC721.sol\";\r\n\r\ncontract Color is ERC721, ERC721Enumerable {\r\n    string[] public colors;\r\n    address public owner;\r\n    mapping(string => bool) _colorExists;\r\n\r\n    struct ColorCoin {\r\n        uint256 id;\r\n        uint256 price;\r\n        string name;\r\n        address owner;\r\n        bool isForSale;\r\n    }\r\n    uint256 public coinsCount = 0;\r\n    mapping(uint256 => ColorCoin) public coins;\r\n\r\n    event Sale(uint256 _tokenId, uint256 _value, address payable _owner);\r\n\r\n    constructor() ERC721(\"Color\", \"COLOR\") {\r\n        owner = msg.sender;\r\n    }\r\n\r\n    modifier onlyOwner() {\r\n        require(msg.sender == owner);\r\n        _;\r\n    }\r\n\r\n    function _beforeTokenTransfer(\r\n        address from,\r\n        address to,\r\n        uint256 tokenId\r\n    ) internal override(ERC721, ERC721Enumerable) {\r\n        super._beforeTokenTransfer(from, to, tokenId);\r\n    }\r\n\r\n    function supportsInterface(bytes4 interfaceId)\r\n        public\r\n        view\r\n        override(ERC721, ERC721Enumerable)\r\n        returns (bool)\r\n    {\r\n        return super.supportsInterface(interfaceId);\r\n    }\r\n\r\n    function mint(string memory _color) public onlyOwner {\r\n        // Require unique color\r\n        require(!_colorExists[_color]);\r\n        // Color add color\r\n        colors.push(_color);\r\n        uint256 _id = colors.length;\r\n        // Call the mint function\r\n        _mint(msg.sender, _id);\r\n        // Color track it\r\n        _colorExists[_color] = true;\r\n        // count incriment\r\n        coinsCount++;\r\n        // create new coin\r\n        ColorCoin memory _coin = ColorCoin(\r\n            coinsCount,\r\n            0,\r\n            _color,\r\n            msg.sender,\r\n            false\r\n        );\r\n        // add coin to mapp\r\n        coins[coinsCount] = _coin;\r\n    }\r\n\r\n    function sale(uint256 _id, bool _newStatus) public {\r\n        require(msg.sender == ownerOf(_id));\r\n        ColorCoin memory _coin = coins[_id];\r\n        require(_coin.isForSale != _newStatus);\r\n\r\n        _coin.isForSale = _newStatus;\r\n        coins[_id] = _coin;\r\n    }\r\n\r\n    function buy(uint256 _id, bool _newStatus) public {\r\n        require(msg.sender != ownerOf(_id));\r\n        ColorCoin memory _coin = coins[_id];\r\n        require(_coin.isForSale != _newStatus);\r\n\r\n        _coin.isForSale = _newStatus;\r\n        _coin.owner = msg.sender;\r\n        coins[_id] = _coin;\r\n    }\r\n\r\n    function changePrice(uint256 _id, uint256 _newPrice) public returns (bool) {\r\n        require(msg.sender == ownerOf(_id));\r\n        ColorCoin memory coin = coins[_id];\r\n        require(coin.price != _newPrice);\r\n\r\n        coin.price = _newPrice;\r\n        coins[_id] = coin;\r\n\r\n        return true;\r\n    }\r\n\r\n    function transfer(address payable _owner, uint256 _id) public payable {\r\n        // Require unique color\r\n        ColorCoin memory _coin = coins[_id];\r\n        string memory _color = _coin.name;\r\n\r\n        require(_coin.isForSale);\r\n        require(_colorExists[_color]);\r\n        require(msg.value >= _coin.price);\r\n\r\n        // call transfer\r\n        _transfer(_owner, msg.sender, _id);\r\n        // money send\r\n        _owner.transfer(msg.value);\r\n        // for sale is false\r\n        _coin.isForSale = false;\r\n        _coin.owner = msg.sender;\r\n\r\n        coins[_id] = _coin;\r\n        // event\r\n        emit Sale(_id, msg.value, _owner);\r\n    }\r\n\r\n    /*function Approve() {\r\n\r\n    }*/\r\n}\r\n",
  "sourcePath": "D:\\repo\\blockchain\\solidity\\nft\\src\\contracts\\Color.sol",
  "compiler": {
    "name": "solc",
    "version": "0.8.7+commit.e28d00a7.Emscripten.clang"
  },
  "schemaVersion": "3.4.3",
  "updatedAt": "2021-09-01T18:07:58.260Z",
  "networkType": "ethereum",
  "devdoc": {
    "kind": "dev",
    "methods": {
      "approve(address,uint256)": {
        "details": "See {IERC721-approve}."
      },
      "balanceOf(address)": {
        "details": "See {IERC721-balanceOf}."
      },
      "getApproved(uint256)": {
        "details": "See {IERC721-getApproved}."
      },
      "isApprovedForAll(address,address)": {
        "details": "See {IERC721-isApprovedForAll}."
      },
      "name()": {
        "details": "See {IERC721Metadata-name}."
      },
      "ownerOf(uint256)": {
        "details": "See {IERC721-ownerOf}."
      },
      "safeTransferFrom(address,address,uint256)": {
        "details": "See {IERC721-safeTransferFrom}."
      },
      "safeTransferFrom(address,address,uint256,bytes)": {
        "details": "See {IERC721-safeTransferFrom}."
      },
      "setApprovalForAll(address,bool)": {
        "details": "See {IERC721-setApprovalForAll}."
      },
      "symbol()": {
        "details": "See {IERC721Metadata-symbol}."
      },
      "tokenByIndex(uint256)": {
        "details": "See {IERC721Enumerable-tokenByIndex}."
      },
      "tokenOfOwnerByIndex(address,uint256)": {
        "details": "See {IERC721Enumerable-tokenOfOwnerByIndex}."
      },
      "tokenURI(uint256)": {
        "details": "See {IERC721Metadata-tokenURI}."
      },
      "totalSupply()": {
        "details": "See {IERC721Enumerable-totalSupply}."
      },
      "transferFrom(address,address,uint256)": {
        "details": "See {IERC721-transferFrom}."
      }
    },
    "version": 1
  },
  "userdoc": {
    "kind": "user",
    "methods": {},
    "version": 1
  }
}