{
  "contractName": "Color",
  "abi": [
    {
      "inputs": [],
      "stateMutability": "nonpayable",
      "type": "constructor"
    },
    {
      "anonymous": false,
      "inputs": [
        {
          "indexed": true,
          "internalType": "address",
          "name": "owner",
          "type": "address"
        },
        {
          "indexed": true,
          "internalType": "address",
          "name": "approved",
          "type": "address"
        },
        {
          "indexed": true,
          "internalType": "uint256",
          "name": "tokenId",
          "type": "uint256"
        }
      ],
      "name": "Approval",
      "type": "event"
    },
    {
      "anonymous": false,
      "inputs": [
        {
          "indexed": true,
          "internalType": "address",
          "name": "owner",
          "type": "address"
        },
        {
          "indexed": true,
          "internalType": "address",
          "name": "operator",
          "type": "address"
        },
        {
          "indexed": false,
          "internalType": "bool",
          "name": "approved",
          "type": "bool"
        }
      ],
      "name": "ApprovalForAll",
      "type": "event"
    },
    {
      "anonymous": false,
      "inputs": [
        {
          "indexed": true,
          "internalType": "address",
          "name": "from",
          "type": "address"
        },
        {
          "indexed": true,
          "internalType": "address",
          "name": "to",
          "type": "address"
        },
        {
          "indexed": true,
          "internalType": "uint256",
          "name": "tokenId",
          "type": "uint256"
        }
      ],
      "name": "Transfer",
      "type": "event"
    },
    {
      "inputs": [
        {
          "internalType": "address",
          "name": "to",
          "type": "address"
        },
        {
          "internalType": "uint256",
          "name": "tokenId",
          "type": "uint256"
        }
      ],
      "name": "approve",
      "outputs": [],
      "stateMutability": "nonpayable",
      "type": "function"
    },
    {
      "inputs": [
        {
          "internalType": "address",
          "name": "owner",
          "type": "address"
        }
      ],
      "name": "balanceOf",
      "outputs": [
        {
          "internalType": "uint256",
          "name": "",
          "type": "uint256"
        }
      ],
      "stateMutability": "view",
      "type": "function",
      "constant": true
    },
    {
      "inputs": [
        {
          "internalType": "uint256",
          "name": "",
          "type": "uint256"
        }
      ],
      "name": "colors",
      "outputs": [
        {
          "internalType": "string",
          "name": "",
          "type": "string"
        }
      ],
      "stateMutability": "view",
      "type": "function",
      "constant": true
    },
    {
      "inputs": [
        {
          "internalType": "uint256",
          "name": "tokenId",
          "type": "uint256"
        }
      ],
      "name": "getApproved",
      "outputs": [
        {
          "internalType": "address",
          "name": "",
          "type": "address"
        }
      ],
      "stateMutability": "view",
      "type": "function",
      "constant": true
    },
    {
      "inputs": [
        {
          "internalType": "address",
          "name": "owner",
          "type": "address"
        },
        {
          "internalType": "address",
          "name": "operator",
          "type": "address"
        }
      ],
      "name": "isApprovedForAll",
      "outputs": [
        {
          "internalType": "bool",
          "name": "",
          "type": "bool"
        }
      ],
      "stateMutability": "view",
      "type": "function",
      "constant": true
    },
    {
      "inputs": [],
      "name": "name",
      "outputs": [
        {
          "internalType": "string",
          "name": "",
          "type": "string"
        }
      ],
      "stateMutability": "view",
      "type": "function",
      "constant": true
    },
    {
      "inputs": [
        {
          "internalType": "uint256",
          "name": "tokenId",
          "type": "uint256"
        }
      ],
      "name": "ownerOf",
      "outputs": [
        {
          "internalType": "address",
          "name": "",
          "type": "address"
        }
      ],
      "stateMutability": "view",
      "type": "function",
      "constant": true
    },
    {
      "inputs": [
        {
          "internalType": "address",
          "name": "from",
          "type": "address"
        },
        {
          "internalType": "address",
          "name": "to",
          "type": "address"
        },
        {
          "internalType": "uint256",
          "name": "tokenId",
          "type": "uint256"
        }
      ],
      "name": "safeTransferFrom",
      "outputs": [],
      "stateMutability": "nonpayable",
      "type": "function"
    },
    {
      "inputs": [
        {
          "internalType": "address",
          "name": "from",
          "type": "address"
        },
        {
          "internalType": "address",
          "name": "to",
          "type": "address"
        },
        {
          "internalType": "uint256",
          "name": "tokenId",
          "type": "uint256"
        },
        {
          "internalType": "bytes",
          "name": "_data",
          "type": "bytes"
        }
      ],
      "name": "safeTransferFrom",
      "outputs": [],
      "stateMutability": "nonpayable",
      "type": "function"
    },
    {
      "inputs": [
        {
          "internalType": "address",
          "name": "operator",
          "type": "address"
        },
        {
          "internalType": "bool",
          "name": "approved",
          "type": "bool"
        }
      ],
      "name": "setApprovalForAll",
      "outputs": [],
      "stateMutability": "nonpayable",
      "type": "function"
    },
    {
      "inputs": [],
      "name": "symbol",
      "outputs": [
        {
          "internalType": "string",
          "name": "",
          "type": "string"
        }
      ],
      "stateMutability": "view",
      "type": "function",
      "constant": true
    },
    {
      "inputs": [
        {
          "internalType": "uint256",
          "name": "tokenId",
          "type": "uint256"
        }
      ],
      "name": "tokenURI",
      "outputs": [
        {
          "internalType": "string",
          "name": "",
          "type": "string"
        }
      ],
      "stateMutability": "view",
      "type": "function",
      "constant": true
    },
    {
      "inputs": [
        {
          "internalType": "address",
          "name": "from",
          "type": "address"
        },
        {
          "internalType": "address",
          "name": "to",
          "type": "address"
        },
        {
          "internalType": "uint256",
          "name": "tokenId",
          "type": "uint256"
        }
      ],
      "name": "transferFrom",
      "outputs": [],
      "stateMutability": "nonpayable",
      "type": "function"
    },
    {
      "inputs": [
        {
          "internalType": "bytes4",
          "name": "interfaceId",
          "type": "bytes4"
        }
      ],
      "name": "supportsInterface",
      "outputs": [
        {
          "internalType": "bool",
          "name": "",
          "type": "bool"
        }
      ],
      "stateMutability": "view",
      "type": "function",
      "constant": true
    },
    {
      "inputs": [
        {
          "internalType": "string",
          "name": "_color",
          "type": "string"
        }
      ],
      "name": "mint",
      "outputs": [],
      "stateMutability": "nonpayable",
      "type": "function"
    }
  ],
  "bytecode": "0x60806040523480156200001157600080fd5b506040518060400160405280600581526020017f436f6c6f720000000000000000000000000000000000000000000000000000008152506040518060400160405280600581526020017f434f4c4f52000000000000000000000000000000000000000000000000000000815250816000908051906020019062000096929190620000b8565b508060019080519060200190620000af929190620000b8565b505050620001cd565b828054620000c69062000168565b90600052602060002090601f016020900481019282620000ea576000855562000136565b82601f106200010557805160ff191683800117855562000136565b8280016001018555821562000136579182015b828111156200013557825182559160200191906001019062000118565b5b50905062000145919062000149565b5090565b5b80821115620001645760008160009055506001016200014a565b5090565b600060028204905060018216806200018157607f821691505b602082108114156200019857620001976200019e565b5b50919050565b7f4e487b7100000000000000000000000000000000000000000000000000000000600052602260045260246000fd5b6129e180620001dd6000396000f3fe608060405234801561001057600080fd5b50600436106100f55760003560e01c806370a0823111610097578063bd11f69d11610066578063bd11f69d14610282578063c87b56dd146102b2578063d85d3d27146102e2578063e985e9c5146102fe576100f5565b806370a08231146101fc57806395d89b411461022c578063a22cb4651461024a578063b88d4fde14610266576100f5565b8063095ea7b3116100d3578063095ea7b31461017857806323b872dd1461019457806342842e0e146101b05780636352211e146101cc576100f5565b806301ffc9a7146100fa57806306fdde031461012a578063081812fc14610148575b600080fd5b610114600480360381019061010f9190611b03565b61032e565b6040516101219190611f2f565b60405180910390f35b610132610340565b60405161013f9190611f4a565b60405180910390f35b610162600480360381019061015d9190611ba6565b6103d2565b60405161016f9190611ec8565b60405180910390f35b610192600480360381019061018d9190611ac3565b610457565b005b6101ae60048036038101906101a991906119ad565b61056f565b005b6101ca60048036038101906101c591906119ad565b6105cf565b005b6101e660048036038101906101e19190611ba6565b6105ef565b6040516101f39190611ec8565b60405180910390f35b61021660048036038101906102119190611940565b6106a1565b604051610223919061212c565b60405180910390f35b610234610759565b6040516102419190611f4a565b60405180910390f35b610264600480360381019061025f9190611a83565b6107eb565b005b610280600480360381019061027b9190611a00565b61096c565b005b61029c60048036038101906102979190611ba6565b6109ce565b6040516102a99190611f4a565b60405180910390f35b6102cc60048036038101906102c79190611ba6565b610a7a565b6040516102d99190611f4a565b60405180910390f35b6102fc60048036038101906102f79190611b5d565b610b21565b005b6103186004803603810190610313919061196d565b610bac565b6040516103259190611f2f565b60405180910390f35b600061033982610c40565b9050919050565b60606000805461034f90612382565b80601f016020809104026020016040519081016040528092919081815260200182805461037b90612382565b80156103c85780601f1061039d576101008083540402835291602001916103c8565b820191906000526020600020905b8154815290600101906020018083116103ab57829003601f168201915b5050505050905090565b60006103dd82610d22565b61041c576040517f08c379a00000000000000000000000000000000000000000000000000000000081526004016104139061208c565b60405180910390fd5b6004600083815260200190815260200160002060009054906101000a900473ffffffffffffffffffffffffffffffffffffffff169050919050565b6000610462826105ef565b90508073ffffffffffffffffffffffffffffffffffffffff168373ffffffffffffffffffffffffffffffffffffffff1614156104d3576040517f08c379a00000000000000000000000000000000000000000000000000000000081526004016104ca906120ec565b60405180910390fd5b8073ffffffffffffffffffffffffffffffffffffffff166104f2610d8e565b73ffffffffffffffffffffffffffffffffffffffff16148061052157506105208161051b610d8e565b610bac565b5b610560576040517f08c379a00000000000000000000000000000000000000000000000000000000081526004016105579061200c565b60405180910390fd5b61056a8383610d96565b505050565b61058061057a610d8e565b82610e4f565b6105bf576040517f08c379a00000000000000000000000000000000000000000000000000000000081526004016105b69061210c565b60405180910390fd5b6105ca838383610f2d565b505050565b6105ea8383836040518060200160405280600081525061096c565b505050565b6000806002600084815260200190815260200160002060009054906101000a900473ffffffffffffffffffffffffffffffffffffffff169050600073ffffffffffffffffffffffffffffffffffffffff168173ffffffffffffffffffffffffffffffffffffffff161415610698576040517f08c379a000000000000000000000000000000000000000000000000000000000815260040161068f9061204c565b60405180910390fd5b80915050919050565b60008073ffffffffffffffffffffffffffffffffffffffff168273ffffffffffffffffffffffffffffffffffffffff161415610712576040517f08c379a00000000000000000000000000000000000000000000000000000000081526004016107099061202c565b60405180910390fd5b600360008373ffffffffffffffffffffffffffffffffffffffff1673ffffffffffffffffffffffffffffffffffffffff168152602001908152602001600020549050919050565b60606001805461076890612382565b80601f016020809104026020016040519081016040528092919081815260200182805461079490612382565b80156107e15780601f106107b6576101008083540402835291602001916107e1565b820191906000526020600020905b8154815290600101906020018083116107c457829003601f168201915b5050505050905090565b6107f3610d8e565b73ffffffffffffffffffffffffffffffffffffffff168273ffffffffffffffffffffffffffffffffffffffff161415610861576040517f08c379a000000000000000000000000000000000000000000000000000000000815260040161085890611fcc565b60405180910390fd5b806005600061086e610d8e565b73ffffffffffffffffffffffffffffffffffffffff1673ffffffffffffffffffffffffffffffffffffffff16815260200190815260200160002060008473ffffffffffffffffffffffffffffffffffffffff1673ffffffffffffffffffffffffffffffffffffffff16815260200190815260200160002060006101000a81548160ff0219169083151502179055508173ffffffffffffffffffffffffffffffffffffffff1661091b610d8e565b73ffffffffffffffffffffffffffffffffffffffff167f17307eab39ab6107e8899845ad3d59bd9653f200f220920489ca2b5937696c31836040516109609190611f2f565b60405180910390a35050565b61097d610977610d8e565b83610e4f565b6109bc576040517f08c379a00000000000000000000000000000000000000000000000000000000081526004016109b39061210c565b60405180910390fd5b6109c884848484611189565b50505050565b600681815481106109de57600080fd5b9060005260206000200160009150905080546109f990612382565b80601f0160208091040260200160405190810160405280929190818152602001828054610a2590612382565b8015610a725780601f10610a4757610100808354040283529160200191610a72565b820191906000526020600020905b815481529060010190602001808311610a5557829003601f168201915b505050505081565b6060610a8582610d22565b610ac4576040517f08c379a0000000000000000000000000000000000000000000000000000000008152600401610abb906120cc565b60405180910390fd5b6000610ace6111e5565b90506000815111610aee5760405180602001604052806000815250610b19565b80610af8846111fc565b604051602001610b09929190611ea4565b6040516020818303038152906040525b915050919050565b600681908060018154018082558091505060019003906000526020600020016000909190919091509080519060200190610b5c929190611754565b5060006006805490509050610b71338261135d565b6001600783604051610b839190611e8d565b908152602001604051809103902060006101000a81548160ff0219169083151502179055505050565b6000600560008473ffffffffffffffffffffffffffffffffffffffff1673ffffffffffffffffffffffffffffffffffffffff16815260200190815260200160002060008373ffffffffffffffffffffffffffffffffffffffff1673ffffffffffffffffffffffffffffffffffffffff16815260200190815260200160002060009054906101000a900460ff16905092915050565b60007f80ac58cd000000000000000000000000000000000000000000000000000000007bffffffffffffffffffffffffffffffffffffffffffffffffffffffff1916827bffffffffffffffffffffffffffffffffffffffffffffffffffffffff19161480610d0b57507f5b5e139f000000000000000000000000000000000000000000000000000000007bffffffffffffffffffffffffffffffffffffffffffffffffffffffff1916827bffffffffffffffffffffffffffffffffffffffffffffffffffffffff1916145b80610d1b5750610d1a8261152b565b5b9050919050565b60008073ffffffffffffffffffffffffffffffffffffffff166002600084815260200190815260200160002060009054906101000a900473ffffffffffffffffffffffffffffffffffffffff1673ffffffffffffffffffffffffffffffffffffffff1614159050919050565b600033905090565b816004600083815260200190815260200160002060006101000a81548173ffffffffffffffffffffffffffffffffffffffff021916908373ffffffffffffffffffffffffffffffffffffffff160217905550808273ffffffffffffffffffffffffffffffffffffffff16610e09836105ef565b73ffffffffffffffffffffffffffffffffffffffff167f8c5be1e5ebec7d5bd14f71427d1e84f3dd0314c0f7b2291e5b200ac8c7c3b92560405160405180910390a45050565b6000610e5a82610d22565b610e99576040517f08c379a0000000000000000000000000000000000000000000000000000000008152600401610e9090611fec565b60405180910390fd5b6000610ea4836105ef565b90508073ffffffffffffffffffffffffffffffffffffffff168473ffffffffffffffffffffffffffffffffffffffff161480610f1357508373ffffffffffffffffffffffffffffffffffffffff16610efb846103d2565b73ffffffffffffffffffffffffffffffffffffffff16145b80610f245750610f238185610bac565b5b91505092915050565b8273ffffffffffffffffffffffffffffffffffffffff16610f4d826105ef565b73ffffffffffffffffffffffffffffffffffffffff1614610fa3576040517f08c379a0000000000000000000000000000000000000000000000000000000008152600401610f9a906120ac565b60405180910390fd5b600073ffffffffffffffffffffffffffffffffffffffff168273ffffffffffffffffffffffffffffffffffffffff161415611013576040517f08c379a000000000000000000000000000000000000000000000000000000000815260040161100a90611fac565b60405180910390fd5b61101e838383611595565b611029600082610d96565b6001600360008573ffffffffffffffffffffffffffffffffffffffff1673ffffffffffffffffffffffffffffffffffffffff16815260200190815260200160002060008282546110799190612298565b925050819055506001600360008473ffffffffffffffffffffffffffffffffffffffff1673ffffffffffffffffffffffffffffffffffffffff16815260200190815260200160002060008282546110d09190612211565b92505081905550816002600083815260200190815260200160002060006101000a81548173ffffffffffffffffffffffffffffffffffffffff021916908373ffffffffffffffffffffffffffffffffffffffff160217905550808273ffffffffffffffffffffffffffffffffffffffff168473ffffffffffffffffffffffffffffffffffffffff167fddf252ad1be2c89b69c2b068fc378daa952ba7f163c4a11628f55a4df523b3ef60405160405180910390a4505050565b611194848484610f2d565b6111a0848484846115a5565b6111df576040517f08c379a00000000000000000000000000000000000000000000000000000000081526004016111d690611f6c565b60405180910390fd5b50505050565b606060405180602001604052806000815250905090565b60606000821415611244576040518060400160405280600181526020017f30000000000000000000000000000000000000000000000000000000000000008152509050611358565b600082905060005b6000821461127657808061125f906123e5565b915050600a8261126f9190612267565b915061124c565b60008167ffffffffffffffff8111156112925761129161251b565b5b6040519080825280601f01601f1916602001820160405280156112c45781602001600182028036833780820191505090505b5090505b60008514611351576001826112dd9190612298565b9150600a856112ec919061242e565b60306112f89190612211565b60f81b81838151811061130e5761130d6124ec565b5b60200101907effffffffffffffffffffffffffffffffffffffffffffffffffffffffffffff1916908160001a905350600a8561134a9190612267565b94506112c8565b8093505050505b919050565b600073ffffffffffffffffffffffffffffffffffffffff168273ffffffffffffffffffffffffffffffffffffffff1614156113cd576040517f08c379a00000000000000000000000000000000000000000000000000000000081526004016113c49061206c565b60405180910390fd5b6113d681610d22565b15611416576040517f08c379a000000000000000000000000000000000000000000000000000000000815260040161140d90611f8c565b60405180910390fd5b61142260008383611595565b6001600360008473ffffffffffffffffffffffffffffffffffffffff1673ffffffffffffffffffffffffffffffffffffffff16815260200190815260200160002060008282546114729190612211565b92505081905550816002600083815260200190815260200160002060006101000a81548173ffffffffffffffffffffffffffffffffffffffff021916908373ffffffffffffffffffffffffffffffffffffffff160217905550808273ffffffffffffffffffffffffffffffffffffffff16600073ffffffffffffffffffffffffffffffffffffffff167fddf252ad1be2c89b69c2b068fc378daa952ba7f163c4a11628f55a4df523b3ef60405160405180910390a45050565b60007f01ffc9a7000000000000000000000000000000000000000000000000000000007bffffffffffffffffffffffffffffffffffffffffffffffffffffffff1916827bffffffffffffffffffffffffffffffffffffffffffffffffffffffff1916149050919050565b6115a083838361173c565b505050565b60006115c68473ffffffffffffffffffffffffffffffffffffffff16611741565b1561172f578373ffffffffffffffffffffffffffffffffffffffff1663150b7a026115ef610d8e565b8786866040518563ffffffff1660e01b81526004016116119493929190611ee3565b602060405180830381600087803b15801561162b57600080fd5b505af192505050801561165c57506040513d601f19601f820116820180604052508101906116599190611b30565b60015b6116df573d806000811461168c576040519150601f19603f3d011682016040523d82523d6000602084013e611691565b606091505b506000815114156116d7576040517f08c379a00000000000000000000000000000000000000000000000000000000081526004016116ce90611f6c565b60405180910390fd5b805181602001fd5b63150b7a0260e01b7bffffffffffffffffffffffffffffffffffffffffffffffffffffffff1916817bffffffffffffffffffffffffffffffffffffffffffffffffffffffff191614915050611734565b600190505b949350505050565b505050565b600080823b905060008111915050919050565b82805461176090612382565b90600052602060002090601f01602090048101928261178257600085556117c9565b82601f1061179b57805160ff19168380011785556117c9565b828001600101855582156117c9579182015b828111156117c85782518255916020019190600101906117ad565b5b5090506117d691906117da565b5090565b5b808211156117f35760008160009055506001016117db565b5090565b600061180a6118058461216c565b612147565b9050828152602081018484840111156118265761182561254f565b5b611831848285612340565b509392505050565b600061184c6118478461219d565b612147565b9050828152602081018484840111156118685761186761254f565b5b611873848285612340565b509392505050565b60008135905061188a8161294f565b92915050565b60008135905061189f81612966565b92915050565b6000813590506118b48161297d565b92915050565b6000815190506118c98161297d565b92915050565b600082601f8301126118e4576118e361254a565b5b81356118f48482602086016117f7565b91505092915050565b600082601f8301126119125761191161254a565b5b8135611922848260208601611839565b91505092915050565b60008135905061193a81612994565b92915050565b60006020828403121561195657611955612559565b5b60006119648482850161187b565b91505092915050565b6000806040838503121561198457611983612559565b5b60006119928582860161187b565b92505060206119a38582860161187b565b9150509250929050565b6000806000606084860312156119c6576119c5612559565b5b60006119d48682870161187b565b93505060206119e58682870161187b565b92505060406119f68682870161192b565b9150509250925092565b60008060008060808587031215611a1a57611a19612559565b5b6000611a288782880161187b565b9450506020611a398782880161187b565b9350506040611a4a8782880161192b565b925050606085013567ffffffffffffffff811115611a6b57611a6a612554565b5b611a77878288016118cf565b91505092959194509250565b60008060408385031215611a9a57611a99612559565b5b6000611aa88582860161187b565b9250506020611ab985828601611890565b9150509250929050565b60008060408385031215611ada57611ad9612559565b5b6000611ae88582860161187b565b9250506020611af98582860161192b565b9150509250929050565b600060208284031215611b1957611b18612559565b5b6000611b27848285016118a5565b91505092915050565b600060208284031215611b4657611b45612559565b5b6000611b54848285016118ba565b91505092915050565b600060208284031215611b7357611b72612559565b5b600082013567ffffffffffffffff811115611b9157611b90612554565b5b611b9d848285016118fd565b91505092915050565b600060208284031215611bbc57611bbb612559565b5b6000611bca8482850161192b565b91505092915050565b611bdc816122cc565b82525050565b611beb816122de565b82525050565b6000611bfc826121ce565b611c0681856121e4565b9350611c1681856020860161234f565b611c1f8161255e565b840191505092915050565b6000611c35826121d9565b611c3f81856121f5565b9350611c4f81856020860161234f565b611c588161255e565b840191505092915050565b6000611c6e826121d9565b611c788185612206565b9350611c8881856020860161234f565b80840191505092915050565b6000611ca16032836121f5565b9150611cac8261256f565b604082019050919050565b6000611cc4601c836121f5565b9150611ccf826125be565b602082019050919050565b6000611ce76024836121f5565b9150611cf2826125e7565b604082019050919050565b6000611d0a6019836121f5565b9150611d1582612636565b602082019050919050565b6000611d2d602c836121f5565b9150611d388261265f565b604082019050919050565b6000611d506038836121f5565b9150611d5b826126ae565b604082019050919050565b6000611d73602a836121f5565b9150611d7e826126fd565b604082019050919050565b6000611d966029836121f5565b9150611da18261274c565b604082019050919050565b6000611db96020836121f5565b9150611dc48261279b565b602082019050919050565b6000611ddc602c836121f5565b9150611de7826127c4565b604082019050919050565b6000611dff6029836121f5565b9150611e0a82612813565b604082019050919050565b6000611e22602f836121f5565b9150611e2d82612862565b604082019050919050565b6000611e456021836121f5565b9150611e50826128b1565b604082019050919050565b6000611e686031836121f5565b9150611e7382612900565b604082019050919050565b611e8781612336565b82525050565b6000611e998284611c63565b915081905092915050565b6000611eb08285611c63565b9150611ebc8284611c63565b91508190509392505050565b6000602082019050611edd6000830184611bd3565b92915050565b6000608082019050611ef86000830187611bd3565b611f056020830186611bd3565b611f126040830185611e7e565b8181036060830152611f248184611bf1565b905095945050505050565b6000602082019050611f446000830184611be2565b92915050565b60006020820190508181036000830152611f648184611c2a565b905092915050565b60006020820190508181036000830152611f8581611c94565b9050919050565b60006020820190508181036000830152611fa581611cb7565b9050919050565b60006020820190508181036000830152611fc581611cda565b9050919050565b60006020820190508181036000830152611fe581611cfd565b9050919050565b6000602082019050818103600083015261200581611d20565b9050919050565b6000602082019050818103600083015261202581611d43565b9050919050565b6000602082019050818103600083015261204581611d66565b9050919050565b6000602082019050818103600083015261206581611d89565b9050919050565b6000602082019050818103600083015261208581611dac565b9050919050565b600060208201905081810360008301526120a581611dcf565b9050919050565b600060208201905081810360008301526120c581611df2565b9050919050565b600060208201905081810360008301526120e581611e15565b9050919050565b6000602082019050818103600083015261210581611e38565b9050919050565b6000602082019050818103600083015261212581611e5b565b9050919050565b60006020820190506121416000830184611e7e565b92915050565b6000612151612162565b905061215d82826123b4565b919050565b6000604051905090565b600067ffffffffffffffff8211156121875761218661251b565b5b6121908261255e565b9050602081019050919050565b600067ffffffffffffffff8211156121b8576121b761251b565b5b6121c18261255e565b9050602081019050919050565b600081519050919050565b600081519050919050565b600082825260208201905092915050565b600082825260208201905092915050565b600081905092915050565b600061221c82612336565b915061222783612336565b9250827fffffffffffffffffffffffffffffffffffffffffffffffffffffffffffffffff0382111561225c5761225b61245f565b5b828201905092915050565b600061227282612336565b915061227d83612336565b92508261228d5761228c61248e565b5b828204905092915050565b60006122a382612336565b91506122ae83612336565b9250828210156122c1576122c061245f565b5b828203905092915050565b60006122d782612316565b9050919050565b60008115159050919050565b60007fffffffff0000000000000000000000000000000000000000000000000000000082169050919050565b600073ffffffffffffffffffffffffffffffffffffffff82169050919050565b6000819050919050565b82818337600083830152505050565b60005b8381101561236d578082015181840152602081019050612352565b8381111561237c576000848401525b50505050565b6000600282049050600182168061239a57607f821691505b602082108114156123ae576123ad6124bd565b5b50919050565b6123bd8261255e565b810181811067ffffffffffffffff821117156123dc576123db61251b565b5b80604052505050565b60006123f082612336565b91507fffffffffffffffffffffffffffffffffffffffffffffffffffffffffffffffff8214156124235761242261245f565b5b600182019050919050565b600061243982612336565b915061244483612336565b9250826124545761245361248e565b5b828206905092915050565b7f4e487b7100000000000000000000000000000000000000000000000000000000600052601160045260246000fd5b7f4e487b7100000000000000000000000000000000000000000000000000000000600052601260045260246000fd5b7f4e487b7100000000000000000000000000000000000000000000000000000000600052602260045260246000fd5b7f4e487b7100000000000000000000000000000000000000000000000000000000600052603260045260246000fd5b7f4e487b7100000000000000000000000000000000000000000000000000000000600052604160045260246000fd5b600080fd5b600080fd5b600080fd5b600080fd5b6000601f19601f8301169050919050565b7f4552433732313a207472616e7366657220746f206e6f6e20455243373231526560008201527f63656976657220696d706c656d656e7465720000000000000000000000000000602082015250565b7f4552433732313a20746f6b656e20616c7265616479206d696e74656400000000600082015250565b7f4552433732313a207472616e7366657220746f20746865207a65726f2061646460008201527f7265737300000000000000000000000000000000000000000000000000000000602082015250565b7f4552433732313a20617070726f766520746f2063616c6c657200000000000000600082015250565b7f4552433732313a206f70657261746f7220717565727920666f72206e6f6e657860008201527f697374656e7420746f6b656e0000000000000000000000000000000000000000602082015250565b7f4552433732313a20617070726f76652063616c6c6572206973206e6f74206f7760008201527f6e6572206e6f7220617070726f76656420666f7220616c6c0000000000000000602082015250565b7f4552433732313a2062616c616e636520717565727920666f7220746865207a6560008201527f726f206164647265737300000000000000000000000000000000000000000000602082015250565b7f4552433732313a206f776e657220717565727920666f72206e6f6e657869737460008201527f656e7420746f6b656e0000000000000000000000000000000000000000000000602082015250565b7f4552433732313a206d696e7420746f20746865207a65726f2061646472657373600082015250565b7f4552433732313a20617070726f76656420717565727920666f72206e6f6e657860008201527f697374656e7420746f6b656e0000000000000000000000000000000000000000602082015250565b7f4552433732313a207472616e73666572206f6620746f6b656e2074686174206960008201527f73206e6f74206f776e0000000000000000000000000000000000000000000000602082015250565b7f4552433732314d657461646174613a2055524920717565727920666f72206e6f60008201527f6e6578697374656e7420746f6b656e0000000000000000000000000000000000602082015250565b7f4552433732313a20617070726f76616c20746f2063757272656e74206f776e6560008201527f7200000000000000000000000000000000000000000000000000000000000000602082015250565b7f4552433732313a207472616e736665722063616c6c6572206973206e6f74206f60008201527f776e6572206e6f7220617070726f766564000000000000000000000000000000602082015250565b612958816122cc565b811461296357600080fd5b50565b61296f816122de565b811461297a57600080fd5b50565b612986816122ea565b811461299157600080fd5b50565b61299d81612336565b81146129a857600080fd5b5056fea2646970667358221220ac730f4bd3f1fa777dec17b3596177195a770525fb2601524ab785e130b6f62f64736f6c63430008070033",
  "immutableReferences": {},
  "source": "// SPDX-License-Identifier: MIT\r\n\r\npragma solidity ^0.8.0;\r\n\r\nimport \"@openzeppelin/contracts/token/ERC721/extensions/ERC721Enumerable.sol\";\r\nimport \"@openzeppelin/contracts/token/ERC721/ERC721.sol\";\r\n\r\n\r\ncontract Color is ERC721 {\r\n    string[] public colors;\r\n    mapping(string => bool) _colorExists;\r\n\r\n    constructor() ERC721(\"Color\", \"COLOR\")  {\r\n    }\r\n\r\n    function _beforeTokenTransfer(address from, address to, uint256 tokenId) internal override(ERC721) {\r\n        super._beforeTokenTransfer(from, to, tokenId);\r\n    }\r\n\r\n    function supportsInterface(bytes4 interfaceId) public view override(ERC721) returns (bool) {\r\n        return super.supportsInterface(interfaceId);\r\n    }\r\n\r\n    function mint(string memory _color) public {\r\n        // Require unique color\r\n        // require(!_colorExists[_color]);\r\n        // Color add color\r\n        colors.push(_color);\r\n        uint _id = colors.length;\r\n        // Call the mint function\r\n        _mint(msg.sender, _id);\r\n        // Color track it\r\n        _colorExists[_color] = true;\r\n    }\r\n\r\n   /* function mint(string memory _color) public {\r\n        colors.push(_color);\r\n        uint _id = colors.length;\r\n        _mint(msg.sender, _id);\r\n        _colorExists[_color] = true;\r\n\r\n    }*/\r\n}",
  "sourcePath": "D:/Repository/Solidity/nft/src/contracts/Color.sol",
  "compiler": {
    "name": "solc",
    "version": "0.8.7+commit.e28d00a7.Emscripten.clang"
  },
  "schemaVersion": "3.4.1",
  "updatedAt": "2021-08-12T17:52:44.992Z",
  "networkType": "ethereum",
  "devdoc": {
    "kind": "dev",
    "methods": {
      "approve(address,uint256)": {
        "details": "See {IERC721-approve}."
      },
      "balanceOf(address)": {
        "details": "See {IERC721-balanceOf}."
      },
      "getApproved(uint256)": {
        "details": "See {IERC721-getApproved}."
      },
      "isApprovedForAll(address,address)": {
        "details": "See {IERC721-isApprovedForAll}."
      },
      "name()": {
        "details": "See {IERC721Metadata-name}."
      },
      "ownerOf(uint256)": {
        "details": "See {IERC721-ownerOf}."
      },
      "safeTransferFrom(address,address,uint256)": {
        "details": "See {IERC721-safeTransferFrom}."
      },
      "safeTransferFrom(address,address,uint256,bytes)": {
        "details": "See {IERC721-safeTransferFrom}."
      },
      "setApprovalForAll(address,bool)": {
        "details": "See {IERC721-setApprovalForAll}."
      },
      "supportsInterface(bytes4)": {
        "details": "See {IERC165-supportsInterface}."
      },
      "symbol()": {
        "details": "See {IERC721Metadata-symbol}."
      },
      "tokenURI(uint256)": {
        "details": "See {IERC721Metadata-tokenURI}."
      },
      "transferFrom(address,address,uint256)": {
        "details": "See {IERC721-transferFrom}."
      }
    },
    "version": 1
  },
  "userdoc": {
    "kind": "user",
    "methods": {},
    "version": 1
  }
}