{
  "contractName": "Color",
  "abi": [
    {
      "inputs": [],
      "stateMutability": "nonpayable",
      "type": "constructor"
    },
    {
      "anonymous": false,
      "inputs": [
        {
          "indexed": true,
          "internalType": "address",
          "name": "owner",
          "type": "address"
        },
        {
          "indexed": true,
          "internalType": "address",
          "name": "approved",
          "type": "address"
        },
        {
          "indexed": true,
          "internalType": "uint256",
          "name": "tokenId",
          "type": "uint256"
        }
      ],
      "name": "Approval",
      "type": "event"
    },
    {
      "anonymous": false,
      "inputs": [
        {
          "indexed": true,
          "internalType": "address",
          "name": "owner",
          "type": "address"
        },
        {
          "indexed": true,
          "internalType": "address",
          "name": "operator",
          "type": "address"
        },
        {
          "indexed": false,
          "internalType": "bool",
          "name": "approved",
          "type": "bool"
        }
      ],
      "name": "ApprovalForAll",
      "type": "event"
    },
    {
      "anonymous": false,
      "inputs": [
        {
          "indexed": false,
          "internalType": "uint256",
          "name": "_tokenId",
          "type": "uint256"
        },
        {
          "indexed": false,
          "internalType": "uint256",
          "name": "_value",
          "type": "uint256"
        },
        {
          "indexed": false,
          "internalType": "address payable",
          "name": "_owner",
          "type": "address"
        }
      ],
      "name": "Sale",
      "type": "event"
    },
    {
      "anonymous": false,
      "inputs": [
        {
          "indexed": true,
          "internalType": "address",
          "name": "from",
          "type": "address"
        },
        {
          "indexed": true,
          "internalType": "address",
          "name": "to",
          "type": "address"
        },
        {
          "indexed": true,
          "internalType": "uint256",
          "name": "tokenId",
          "type": "uint256"
        }
      ],
      "name": "Transfer",
      "type": "event"
    },
    {
      "inputs": [
        {
          "internalType": "address",
          "name": "to",
          "type": "address"
        },
        {
          "internalType": "uint256",
          "name": "tokenId",
          "type": "uint256"
        }
      ],
      "name": "approve",
      "outputs": [],
      "stateMutability": "nonpayable",
      "type": "function"
    },
    {
      "inputs": [
        {
          "internalType": "address",
          "name": "owner",
          "type": "address"
        }
      ],
      "name": "balanceOf",
      "outputs": [
        {
          "internalType": "uint256",
          "name": "",
          "type": "uint256"
        }
      ],
      "stateMutability": "view",
      "type": "function",
      "constant": true
    },
    {
      "inputs": [
        {
          "internalType": "uint256",
          "name": "",
          "type": "uint256"
        }
      ],
      "name": "coins",
      "outputs": [
        {
          "internalType": "uint256",
          "name": "id",
          "type": "uint256"
        },
        {
          "internalType": "uint256",
          "name": "price",
          "type": "uint256"
        },
        {
          "internalType": "string",
          "name": "name",
          "type": "string"
        },
        {
          "internalType": "bool",
          "name": "isForSale",
          "type": "bool"
        }
      ],
      "stateMutability": "view",
      "type": "function",
      "constant": true
    },
    {
      "inputs": [],
      "name": "coinsCount",
      "outputs": [
        {
          "internalType": "uint256",
          "name": "",
          "type": "uint256"
        }
      ],
      "stateMutability": "view",
      "type": "function",
      "constant": true
    },
    {
      "inputs": [
        {
          "internalType": "uint256",
          "name": "",
          "type": "uint256"
        }
      ],
      "name": "colors",
      "outputs": [
        {
          "internalType": "string",
          "name": "",
          "type": "string"
        }
      ],
      "stateMutability": "view",
      "type": "function",
      "constant": true
    },
    {
      "inputs": [
        {
          "internalType": "uint256",
          "name": "tokenId",
          "type": "uint256"
        }
      ],
      "name": "getApproved",
      "outputs": [
        {
          "internalType": "address",
          "name": "",
          "type": "address"
        }
      ],
      "stateMutability": "view",
      "type": "function",
      "constant": true
    },
    {
      "inputs": [
        {
          "internalType": "address",
          "name": "owner",
          "type": "address"
        },
        {
          "internalType": "address",
          "name": "operator",
          "type": "address"
        }
      ],
      "name": "isApprovedForAll",
      "outputs": [
        {
          "internalType": "bool",
          "name": "",
          "type": "bool"
        }
      ],
      "stateMutability": "view",
      "type": "function",
      "constant": true
    },
    {
      "inputs": [],
      "name": "name",
      "outputs": [
        {
          "internalType": "string",
          "name": "",
          "type": "string"
        }
      ],
      "stateMutability": "view",
      "type": "function",
      "constant": true
    },
    {
      "inputs": [],
      "name": "owner",
      "outputs": [
        {
          "internalType": "address",
          "name": "",
          "type": "address"
        }
      ],
      "stateMutability": "view",
      "type": "function",
      "constant": true
    },
    {
      "inputs": [
        {
          "internalType": "uint256",
          "name": "tokenId",
          "type": "uint256"
        }
      ],
      "name": "ownerOf",
      "outputs": [
        {
          "internalType": "address",
          "name": "",
          "type": "address"
        }
      ],
      "stateMutability": "view",
      "type": "function",
      "constant": true
    },
    {
      "inputs": [
        {
          "internalType": "address",
          "name": "from",
          "type": "address"
        },
        {
          "internalType": "address",
          "name": "to",
          "type": "address"
        },
        {
          "internalType": "uint256",
          "name": "tokenId",
          "type": "uint256"
        }
      ],
      "name": "safeTransferFrom",
      "outputs": [],
      "stateMutability": "nonpayable",
      "type": "function"
    },
    {
      "inputs": [
        {
          "internalType": "address",
          "name": "from",
          "type": "address"
        },
        {
          "internalType": "address",
          "name": "to",
          "type": "address"
        },
        {
          "internalType": "uint256",
          "name": "tokenId",
          "type": "uint256"
        },
        {
          "internalType": "bytes",
          "name": "_data",
          "type": "bytes"
        }
      ],
      "name": "safeTransferFrom",
      "outputs": [],
      "stateMutability": "nonpayable",
      "type": "function"
    },
    {
      "inputs": [
        {
          "internalType": "address",
          "name": "operator",
          "type": "address"
        },
        {
          "internalType": "bool",
          "name": "approved",
          "type": "bool"
        }
      ],
      "name": "setApprovalForAll",
      "outputs": [],
      "stateMutability": "nonpayable",
      "type": "function"
    },
    {
      "inputs": [],
      "name": "symbol",
      "outputs": [
        {
          "internalType": "string",
          "name": "",
          "type": "string"
        }
      ],
      "stateMutability": "view",
      "type": "function",
      "constant": true
    },
    {
      "inputs": [
        {
          "internalType": "uint256",
          "name": "index",
          "type": "uint256"
        }
      ],
      "name": "tokenByIndex",
      "outputs": [
        {
          "internalType": "uint256",
          "name": "",
          "type": "uint256"
        }
      ],
      "stateMutability": "view",
      "type": "function",
      "constant": true
    },
    {
      "inputs": [
        {
          "internalType": "address",
          "name": "owner",
          "type": "address"
        },
        {
          "internalType": "uint256",
          "name": "index",
          "type": "uint256"
        }
      ],
      "name": "tokenOfOwnerByIndex",
      "outputs": [
        {
          "internalType": "uint256",
          "name": "",
          "type": "uint256"
        }
      ],
      "stateMutability": "view",
      "type": "function",
      "constant": true
    },
    {
      "inputs": [
        {
          "internalType": "uint256",
          "name": "tokenId",
          "type": "uint256"
        }
      ],
      "name": "tokenURI",
      "outputs": [
        {
          "internalType": "string",
          "name": "",
          "type": "string"
        }
      ],
      "stateMutability": "view",
      "type": "function",
      "constant": true
    },
    {
      "inputs": [],
      "name": "totalSupply",
      "outputs": [
        {
          "internalType": "uint256",
          "name": "",
          "type": "uint256"
        }
      ],
      "stateMutability": "view",
      "type": "function",
      "constant": true
    },
    {
      "inputs": [
        {
          "internalType": "address",
          "name": "from",
          "type": "address"
        },
        {
          "internalType": "address",
          "name": "to",
          "type": "address"
        },
        {
          "internalType": "uint256",
          "name": "tokenId",
          "type": "uint256"
        }
      ],
      "name": "transferFrom",
      "outputs": [],
      "stateMutability": "nonpayable",
      "type": "function"
    },
    {
      "inputs": [
        {
          "internalType": "bytes4",
          "name": "interfaceId",
          "type": "bytes4"
        }
      ],
      "name": "supportsInterface",
      "outputs": [
        {
          "internalType": "bool",
          "name": "",
          "type": "bool"
        }
      ],
      "stateMutability": "view",
      "type": "function",
      "constant": true
    },
    {
      "inputs": [
        {
          "internalType": "string",
          "name": "_color",
          "type": "string"
        }
      ],
      "name": "mint",
      "outputs": [],
      "stateMutability": "nonpayable",
      "type": "function"
    },
    {
      "inputs": [
        {
          "internalType": "uint256",
          "name": "_id",
          "type": "uint256"
        },
        {
          "internalType": "bool",
          "name": "_newStatus",
          "type": "bool"
        }
      ],
      "name": "sale",
      "outputs": [],
      "stateMutability": "nonpayable",
      "type": "function"
    },
    {
      "inputs": [
        {
          "internalType": "uint256",
          "name": "_id",
          "type": "uint256"
        },
        {
          "internalType": "uint256",
          "name": "_newPrice",
          "type": "uint256"
        }
      ],
      "name": "changePrice",
      "outputs": [
        {
          "internalType": "bool",
          "name": "",
          "type": "bool"
        }
      ],
      "stateMutability": "nonpayable",
      "type": "function"
    },
    {
      "inputs": [
        {
          "internalType": "address payable",
          "name": "_owner",
          "type": "address"
        },
        {
          "internalType": "uint256",
          "name": "_tokenId",
          "type": "uint256"
        }
      ],
      "name": "transfer",
      "outputs": [],
      "stateMutability": "payable",
      "type": "function",
      "payable": true
    }
  ],
  "bytecode": "0x60806040526000600d553480156200001657600080fd5b506040518060400160405280600581526020017f436f6c6f720000000000000000000000000000000000000000000000000000008152506040518060400160405280600581526020017f434f4c4f5200000000000000000000000000000000000000000000000000000081525081600090805190602001906200009b929190620000fe565b508060019080519060200190620000b4929190620000fe565b50505033600b60006101000a81548173ffffffffffffffffffffffffffffffffffffffff021916908373ffffffffffffffffffffffffffffffffffffffff16021790555062000213565b8280546200010c90620001ae565b90600052602060002090601f0160209004810192826200013057600085556200017c565b82601f106200014b57805160ff19168380011785556200017c565b828001600101855582156200017c579182015b828111156200017b5782518255916020019190600101906200015e565b5b5090506200018b91906200018f565b5090565b5b80821115620001aa57600081600090555060010162000190565b5090565b60006002820490506001821680620001c757607f821691505b60208210811415620001de57620001dd620001e4565b5b50919050565b7f4e487b7100000000000000000000000000000000000000000000000000000000600052602260045260246000fd5b613ccc80620002236000396000f3fe60806040526004361061014b5760003560e01c806370a08231116100b6578063b88d4fde1161006f578063b88d4fde146104bb578063bd11f69d146104e4578063c661065714610521578063c87b56dd14610561578063d85d3d271461059e578063e985e9c5146105c75761014b565b806370a08231146103a65780638da5cb5b146103e357806395d89b411461040e578063a22cb46514610439578063a9059cbb14610462578063b3de019c1461047e5761014b565b80632f745c59116101085780632f745c591461027257806342842e0e146102af578063455ef8f9146102d85780634f6ccce7146103035780636352211e146103405780636977fb691461037d5761014b565b806301ffc9a71461015057806306fdde031461018d578063081812fc146101b8578063095ea7b3146101f557806318160ddd1461021e57806323b872dd14610249575b600080fd5b34801561015c57600080fd5b5061017760048036038101906101729190612b60565b610604565b6040516101849190613061565b60405180910390f35b34801561019957600080fd5b506101a2610616565b6040516101af919061307c565b60405180910390f35b3480156101c457600080fd5b506101df60048036038101906101da9190612c03565b6106a8565b6040516101ec9190612ffa565b60405180910390f35b34801561020157600080fd5b5061021c60048036038101906102179190612b20565b61072d565b005b34801561022a57600080fd5b50610233610845565b604051610240919061329e565b60405180910390f35b34801561025557600080fd5b50610270600480360381019061026b9190612a0a565b610852565b005b34801561027e57600080fd5b5061029960048036038101906102949190612b20565b6108b2565b6040516102a6919061329e565b60405180910390f35b3480156102bb57600080fd5b506102d660048036038101906102d19190612a0a565b610957565b005b3480156102e457600080fd5b506102ed610977565b6040516102fa919061329e565b60405180910390f35b34801561030f57600080fd5b5061032a60048036038101906103259190612c03565b61097d565b604051610337919061329e565b60405180910390f35b34801561034c57600080fd5b5061036760048036038101906103629190612c03565b6109ee565b6040516103749190612ffa565b60405180910390f35b34801561038957600080fd5b506103a4600480360381019061039f9190612c30565b610aa0565b005b3480156103b257600080fd5b506103cd60048036038101906103c8919061295d565b610c55565b6040516103da919061329e565b60405180910390f35b3480156103ef57600080fd5b506103f8610d0d565b6040516104059190612ffa565b60405180910390f35b34801561041a57600080fd5b50610423610d33565b604051610430919061307c565b60405180910390f35b34801561044557600080fd5b50610460600480360381019061045b9190612ae0565b610dc5565b005b61047c6004803603810190610477919061298a565b610f46565b005b34801561048a57600080fd5b506104a560048036038101906104a09190612c70565b61112a565b6040516104b29190613061565b60405180910390f35b3480156104c757600080fd5b506104e260048036038101906104dd9190612a5d565b6112dd565b005b3480156104f057600080fd5b5061050b60048036038101906105069190612c03565b61133f565b604051610518919061307c565b60405180910390f35b34801561052d57600080fd5b5061054860048036038101906105439190612c03565b6113eb565b60405161055894939291906132f0565b60405180910390f35b34801561056d57600080fd5b5061058860048036038101906105839190612c03565b6114b0565b604051610595919061307c565b60405180910390f35b3480156105aa57600080fd5b506105c560048036038101906105c09190612bba565b611557565b005b3480156105d357600080fd5b506105ee60048036038101906105e991906129ca565b611720565b6040516105fb9190613061565b60405180910390f35b600061060f826117b4565b9050919050565b60606000805461062590613589565b80601f016020809104026020016040519081016040528092919081815260200182805461065190613589565b801561069e5780601f106106735761010080835404028352916020019161069e565b820191906000526020600020905b81548152906001019060200180831161068157829003601f168201915b5050505050905090565b60006106b38261182e565b6106f2576040517f08c379a00000000000000000000000000000000000000000000000000000000081526004016106e9906131de565b60405180910390fd5b6004600083815260200190815260200160002060009054906101000a900473ffffffffffffffffffffffffffffffffffffffff169050919050565b6000610738826109ee565b90508073ffffffffffffffffffffffffffffffffffffffff168373ffffffffffffffffffffffffffffffffffffffff1614156107a9576040517f08c379a00000000000000000000000000000000000000000000000000000000081526004016107a09061323e565b60405180910390fd5b8073ffffffffffffffffffffffffffffffffffffffff166107c861189a565b73ffffffffffffffffffffffffffffffffffffffff1614806107f757506107f6816107f161189a565b611720565b5b610836576040517f08c379a000000000000000000000000000000000000000000000000000000000815260040161082d9061315e565b60405180910390fd5b61084083836118a2565b505050565b6000600880549050905090565b61086361085d61189a565b8261195b565b6108a2576040517f08c379a00000000000000000000000000000000000000000000000000000000081526004016108999061325e565b60405180910390fd5b6108ad838383611a39565b505050565b60006108bd83610c55565b82106108fe576040517f08c379a00000000000000000000000000000000000000000000000000000000081526004016108f59061309e565b60405180910390fd5b600660008473ffffffffffffffffffffffffffffffffffffffff1673ffffffffffffffffffffffffffffffffffffffff168152602001908152602001600020600083815260200190815260200160002054905092915050565b610972838383604051806020016040528060008152506112dd565b505050565b600d5481565b6000610987610845565b82106109c8576040517f08c379a00000000000000000000000000000000000000000000000000000000081526004016109bf9061327e565b60405180910390fd5b600882815481106109dc576109db613722565b5b90600052602060002001549050919050565b6000806002600084815260200190815260200160002060009054906101000a900473ffffffffffffffffffffffffffffffffffffffff169050600073ffffffffffffffffffffffffffffffffffffffff168173ffffffffffffffffffffffffffffffffffffffff161415610a97576040517f08c379a0000000000000000000000000000000000000000000000000000000008152600401610a8e9061319e565b60405180910390fd5b80915050919050565b610aa9826109ee565b73ffffffffffffffffffffffffffffffffffffffff163373ffffffffffffffffffffffffffffffffffffffff1614610ae057600080fd5b6000600e60008481526020019081526020016000206040518060800160405290816000820154815260200160018201548152602001600282018054610b2490613589565b80601f0160208091040260200160405190810160405280929190818152602001828054610b5090613589565b8015610b9d5780601f10610b7257610100808354040283529160200191610b9d565b820191906000526020600020905b815481529060010190602001808311610b8057829003601f168201915b505050505081526020016003820160009054906101000a900460ff1615151515815250509050811515816060015115151415610bd857600080fd5b8181606001901515908115158152505080600e600085815260200190815260200160002060008201518160000155602082015181600101556040820151816002019080519060200190610c2c92919061275c565b5060608201518160030160006101000a81548160ff021916908315150217905550905050505050565b60008073ffffffffffffffffffffffffffffffffffffffff168273ffffffffffffffffffffffffffffffffffffffff161415610cc6576040517f08c379a0000000000000000000000000000000000000000000000000000000008152600401610cbd9061317e565b60405180910390fd5b600360008373ffffffffffffffffffffffffffffffffffffffff1673ffffffffffffffffffffffffffffffffffffffff168152602001908152602001600020549050919050565b600b60009054906101000a900473ffffffffffffffffffffffffffffffffffffffff1681565b606060018054610d4290613589565b80601f0160208091040260200160405190810160405280929190818152602001828054610d6e90613589565b8015610dbb5780601f10610d9057610100808354040283529160200191610dbb565b820191906000526020600020905b815481529060010190602001808311610d9e57829003601f168201915b5050505050905090565b610dcd61189a565b73ffffffffffffffffffffffffffffffffffffffff168273ffffffffffffffffffffffffffffffffffffffff161415610e3b576040517f08c379a0000000000000000000000000000000000000000000000000000000008152600401610e329061311e565b60405180910390fd5b8060056000610e4861189a565b73ffffffffffffffffffffffffffffffffffffffff1673ffffffffffffffffffffffffffffffffffffffff16815260200190815260200160002060008473ffffffffffffffffffffffffffffffffffffffff1673ffffffffffffffffffffffffffffffffffffffff16815260200190815260200160002060006101000a81548160ff0219169083151502179055508173ffffffffffffffffffffffffffffffffffffffff16610ef561189a565b73ffffffffffffffffffffffffffffffffffffffff167f17307eab39ab6107e8899845ad3d59bd9653f200f220920489ca2b5937696c3183604051610f3a9190613061565b60405180910390a35050565b6000600e60008381526020019081526020016000206040518060800160405290816000820154815260200160018201548152602001600282018054610f8a90613589565b80601f0160208091040260200160405190810160405280929190818152602001828054610fb690613589565b80156110035780601f10610fd857610100808354040283529160200191611003565b820191906000526020600020905b815481529060010190602001808311610fe657829003601f168201915b505050505081526020016003820160009054906101000a900460ff1615151515815250509050600081604001519050816060015161104057600080fd5b600c816040516110509190612fbf565b908152602001604051809103902060009054906101000a900460ff1661107557600080fd5b816020015134101561108657600080fd5b611091843385611a39565b8373ffffffffffffffffffffffffffffffffffffffff166108fc349081150290604051600060405180830381858888f193505050501580156110d7573d6000803e3d6000fd5b5060008260600190151590811515815250507fc6c6b3edda909266a5318852aa7d9dc6cf91b0b0121eca2fa864b66946f3c92283348660405161111c939291906132b9565b60405180910390a150505050565b6000611135836109ee565b73ffffffffffffffffffffffffffffffffffffffff163373ffffffffffffffffffffffffffffffffffffffff161461116c57600080fd5b6000600e600085815260200190815260200160002060405180608001604052908160008201548152602001600182015481526020016002820180546111b090613589565b80601f01602080910402602001604051908101604052809291908181526020018280546111dc90613589565b80156112295780601f106111fe57610100808354040283529160200191611229565b820191906000526020600020905b81548152906001019060200180831161120c57829003601f168201915b505050505081526020016003820160009054906101000a900460ff1615151515815250509050828160200151141561126057600080fd5b8281602001818152505080600e6000868152602001908152602001600020600082015181600001556020820151816001015560408201518160020190805190602001906112ae92919061275c565b5060608201518160030160006101000a81548160ff021916908315150217905550905050600191505092915050565b6112ee6112e861189a565b8361195b565b61132d576040517f08c379a00000000000000000000000000000000000000000000000000000000081526004016113249061325e565b60405180910390fd5b61133984848484611c95565b50505050565b600a818154811061134f57600080fd5b90600052602060002001600091509050805461136a90613589565b80601f016020809104026020016040519081016040528092919081815260200182805461139690613589565b80156113e35780601f106113b8576101008083540402835291602001916113e3565b820191906000526020600020905b8154815290600101906020018083116113c657829003601f168201915b505050505081565b600e60205280600052604060002060009150905080600001549080600101549080600201805461141a90613589565b80601f016020809104026020016040519081016040528092919081815260200182805461144690613589565b80156114935780601f1061146857610100808354040283529160200191611493565b820191906000526020600020905b81548152906001019060200180831161147657829003601f168201915b5050505050908060030160009054906101000a900460ff16905084565b60606114bb8261182e565b6114fa576040517f08c379a00000000000000000000000000000000000000000000000000000000081526004016114f19061321e565b60405180910390fd5b6000611504611cf1565b90506000815111611524576040518060200160405280600081525061154f565b8061152e84611d08565b60405160200161153f929190612fd6565b6040516020818303038152906040525b915050919050565b600b60009054906101000a900473ffffffffffffffffffffffffffffffffffffffff1673ffffffffffffffffffffffffffffffffffffffff163373ffffffffffffffffffffffffffffffffffffffff16146115b157600080fd5b600c816040516115c19190612fbf565b908152602001604051809103902060009054906101000a900460ff16156115e757600080fd5b600a8190806001815401808255809150506001900390600052602060002001600090919091909150908051906020019061162292919061275c565b506000600a8054905090506116373382611e69565b6001600c836040516116499190612fbf565b908152602001604051809103902060006101000a81548160ff021916908315150217905550600d6000815480929190611681906135ec565b919050555060006040518060800160405280600d5481526020016000815260200184815260200160001515815250905080600e6000600d548152602001908152602001600020600082015181600001556020820151816001015560408201518160020190805190602001906116f792919061275c565b5060608201518160030160006101000a81548160ff021916908315150217905550905050505050565b6000600560008473ffffffffffffffffffffffffffffffffffffffff1673ffffffffffffffffffffffffffffffffffffffff16815260200190815260200160002060008373ffffffffffffffffffffffffffffffffffffffff1673ffffffffffffffffffffffffffffffffffffffff16815260200190815260200160002060009054906101000a900460ff16905092915050565b60007f780e9d63000000000000000000000000000000000000000000000000000000007bffffffffffffffffffffffffffffffffffffffffffffffffffffffff1916827bffffffffffffffffffffffffffffffffffffffffffffffffffffffff19161480611827575061182682612037565b5b9050919050565b60008073ffffffffffffffffffffffffffffffffffffffff166002600084815260200190815260200160002060009054906101000a900473ffffffffffffffffffffffffffffffffffffffff1673ffffffffffffffffffffffffffffffffffffffff1614159050919050565b600033905090565b816004600083815260200190815260200160002060006101000a81548173ffffffffffffffffffffffffffffffffffffffff021916908373ffffffffffffffffffffffffffffffffffffffff160217905550808273ffffffffffffffffffffffffffffffffffffffff16611915836109ee565b73ffffffffffffffffffffffffffffffffffffffff167f8c5be1e5ebec7d5bd14f71427d1e84f3dd0314c0f7b2291e5b200ac8c7c3b92560405160405180910390a45050565b60006119668261182e565b6119a5576040517f08c379a000000000000000000000000000000000000000000000000000000000815260040161199c9061313e565b60405180910390fd5b60006119b0836109ee565b90508073ffffffffffffffffffffffffffffffffffffffff168473ffffffffffffffffffffffffffffffffffffffff161480611a1f57508373ffffffffffffffffffffffffffffffffffffffff16611a07846106a8565b73ffffffffffffffffffffffffffffffffffffffff16145b80611a305750611a2f8185611720565b5b91505092915050565b8273ffffffffffffffffffffffffffffffffffffffff16611a59826109ee565b73ffffffffffffffffffffffffffffffffffffffff1614611aaf576040517f08c379a0000000000000000000000000000000000000000000000000000000008152600401611aa6906131fe565b60405180910390fd5b600073ffffffffffffffffffffffffffffffffffffffff168273ffffffffffffffffffffffffffffffffffffffff161415611b1f576040517f08c379a0000000000000000000000000000000000000000000000000000000008152600401611b16906130fe565b60405180910390fd5b611b2a838383612119565b611b356000826118a2565b6001600360008573ffffffffffffffffffffffffffffffffffffffff1673ffffffffffffffffffffffffffffffffffffffff1681526020019081526020016000206000828254611b85919061348d565b925050819055506001600360008473ffffffffffffffffffffffffffffffffffffffff1673ffffffffffffffffffffffffffffffffffffffff1681526020019081526020016000206000828254611bdc9190613406565b92505081905550816002600083815260200190815260200160002060006101000a81548173ffffffffffffffffffffffffffffffffffffffff021916908373ffffffffffffffffffffffffffffffffffffffff160217905550808273ffffffffffffffffffffffffffffffffffffffff168473ffffffffffffffffffffffffffffffffffffffff167fddf252ad1be2c89b69c2b068fc378daa952ba7f163c4a11628f55a4df523b3ef60405160405180910390a4505050565b611ca0848484611a39565b611cac84848484612129565b611ceb576040517f08c379a0000000000000000000000000000000000000000000000000000000008152600401611ce2906130be565b60405180910390fd5b50505050565b606060405180602001604052806000815250905090565b60606000821415611d50576040518060400160405280600181526020017f30000000000000000000000000000000000000000000000000000000000000008152509050611e64565b600082905060005b60008214611d82578080611d6b906135ec565b915050600a82611d7b919061345c565b9150611d58565b60008167ffffffffffffffff811115611d9e57611d9d613751565b5b6040519080825280601f01601f191660200182016040528015611dd05781602001600182028036833780820191505090505b5090505b60008514611e5d57600182611de9919061348d565b9150600a85611df89190613635565b6030611e049190613406565b60f81b818381518110611e1a57611e19613722565b5b60200101907effffffffffffffffffffffffffffffffffffffffffffffffffffffffffffff1916908160001a905350600a85611e56919061345c565b9450611dd4565b8093505050505b919050565b600073ffffffffffffffffffffffffffffffffffffffff168273ffffffffffffffffffffffffffffffffffffffff161415611ed9576040517f08c379a0000000000000000000000000000000000000000000000000000000008152600401611ed0906131be565b60405180910390fd5b611ee28161182e565b15611f22576040517f08c379a0000000000000000000000000000000000000000000000000000000008152600401611f19906130de565b60405180910390fd5b611f2e60008383612119565b6001600360008473ffffffffffffffffffffffffffffffffffffffff1673ffffffffffffffffffffffffffffffffffffffff1681526020019081526020016000206000828254611f7e9190613406565b92505081905550816002600083815260200190815260200160002060006101000a81548173ffffffffffffffffffffffffffffffffffffffff021916908373ffffffffffffffffffffffffffffffffffffffff160217905550808273ffffffffffffffffffffffffffffffffffffffff16600073ffffffffffffffffffffffffffffffffffffffff167fddf252ad1be2c89b69c2b068fc378daa952ba7f163c4a11628f55a4df523b3ef60405160405180910390a45050565b60007f80ac58cd000000000000000000000000000000000000000000000000000000007bffffffffffffffffffffffffffffffffffffffffffffffffffffffff1916827bffffffffffffffffffffffffffffffffffffffffffffffffffffffff1916148061210257507f5b5e139f000000000000000000000000000000000000000000000000000000007bffffffffffffffffffffffffffffffffffffffffffffffffffffffff1916827bffffffffffffffffffffffffffffffffffffffffffffffffffffffff1916145b806121125750612111826122c0565b5b9050919050565b61212483838361232a565b505050565b600061214a8473ffffffffffffffffffffffffffffffffffffffff1661243e565b156122b3578373ffffffffffffffffffffffffffffffffffffffff1663150b7a0261217361189a565b8786866040518563ffffffff1660e01b81526004016121959493929190613015565b602060405180830381600087803b1580156121af57600080fd5b505af19250505080156121e057506040513d601f19601f820116820180604052508101906121dd9190612b8d565b60015b612263573d8060008114612210576040519150601f19603f3d011682016040523d82523d6000602084013e612215565b606091505b5060008151141561225b576040517f08c379a0000000000000000000000000000000000000000000000000000000008152600401612252906130be565b60405180910390fd5b805181602001fd5b63150b7a0260e01b7bffffffffffffffffffffffffffffffffffffffffffffffffffffffff1916817bffffffffffffffffffffffffffffffffffffffffffffffffffffffff1916149150506122b8565b600190505b949350505050565b60007f01ffc9a7000000000000000000000000000000000000000000000000000000007bffffffffffffffffffffffffffffffffffffffffffffffffffffffff1916827bffffffffffffffffffffffffffffffffffffffffffffffffffffffff1916149050919050565b612335838383612451565b600073ffffffffffffffffffffffffffffffffffffffff168373ffffffffffffffffffffffffffffffffffffffff1614156123785761237381612456565b6123b7565b8173ffffffffffffffffffffffffffffffffffffffff168373ffffffffffffffffffffffffffffffffffffffff16146123b6576123b5838261249f565b5b5b600073ffffffffffffffffffffffffffffffffffffffff168273ffffffffffffffffffffffffffffffffffffffff1614156123fa576123f58161260c565b612439565b8273ffffffffffffffffffffffffffffffffffffffff168273ffffffffffffffffffffffffffffffffffffffff16146124385761243782826126dd565b5b5b505050565b600080823b905060008111915050919050565b505050565b6008805490506009600083815260200190815260200160002081905550600881908060018154018082558091505060019003906000526020600020016000909190919091505550565b600060016124ac84610c55565b6124b6919061348d565b905060006007600084815260200190815260200160002054905081811461259b576000600660008673ffffffffffffffffffffffffffffffffffffffff1673ffffffffffffffffffffffffffffffffffffffff168152602001908152602001600020600084815260200190815260200160002054905080600660008773ffffffffffffffffffffffffffffffffffffffff1673ffffffffffffffffffffffffffffffffffffffff168152602001908152602001600020600084815260200190815260200160002081905550816007600083815260200190815260200160002081905550505b6007600084815260200190815260200160002060009055600660008573ffffffffffffffffffffffffffffffffffffffff1673ffffffffffffffffffffffffffffffffffffffff16815260200190815260200160002060008381526020019081526020016000206000905550505050565b60006001600880549050612620919061348d565b90506000600960008481526020019081526020016000205490506000600883815481106126505761264f613722565b5b90600052602060002001549050806008838154811061267257612671613722565b5b9060005260206000200181905550816009600083815260200190815260200160002081905550600960008581526020019081526020016000206000905560088054806126c1576126c06136f3565b5b6001900381819060005260206000200160009055905550505050565b60006126e883610c55565b905081600660008573ffffffffffffffffffffffffffffffffffffffff1673ffffffffffffffffffffffffffffffffffffffff168152602001908152602001600020600083815260200190815260200160002081905550806007600084815260200190815260200160002081905550505050565b82805461276890613589565b90600052602060002090601f01602090048101928261278a57600085556127d1565b82601f106127a357805160ff19168380011785556127d1565b828001600101855582156127d1579182015b828111156127d05782518255916020019190600101906127b5565b5b5090506127de91906127e2565b5090565b5b808211156127fb5760008160009055506001016127e3565b5090565b600061281261280d84613361565b61333c565b90508281526020810184848401111561282e5761282d613785565b5b612839848285613547565b509392505050565b600061285461284f84613392565b61333c565b9050828152602081018484840111156128705761286f613785565b5b61287b848285613547565b509392505050565b60008135905061289281613c23565b92915050565b6000813590506128a781613c3a565b92915050565b6000813590506128bc81613c51565b92915050565b6000813590506128d181613c68565b92915050565b6000815190506128e681613c68565b92915050565b600082601f83011261290157612900613780565b5b81356129118482602086016127ff565b91505092915050565b600082601f83011261292f5761292e613780565b5b813561293f848260208601612841565b91505092915050565b60008135905061295781613c7f565b92915050565b6000602082840312156129735761297261378f565b5b600061298184828501612883565b91505092915050565b600080604083850312156129a1576129a061378f565b5b60006129af85828601612898565b92505060206129c085828601612948565b9150509250929050565b600080604083850312156129e1576129e061378f565b5b60006129ef85828601612883565b9250506020612a0085828601612883565b9150509250929050565b600080600060608486031215612a2357612a2261378f565b5b6000612a3186828701612883565b9350506020612a4286828701612883565b9250506040612a5386828701612948565b9150509250925092565b60008060008060808587031215612a7757612a7661378f565b5b6000612a8587828801612883565b9450506020612a9687828801612883565b9350506040612aa787828801612948565b925050606085013567ffffffffffffffff811115612ac857612ac761378a565b5b612ad4878288016128ec565b91505092959194509250565b60008060408385031215612af757612af661378f565b5b6000612b0585828601612883565b9250506020612b16858286016128ad565b9150509250929050565b60008060408385031215612b3757612b3661378f565b5b6000612b4585828601612883565b9250506020612b5685828601612948565b9150509250929050565b600060208284031215612b7657612b7561378f565b5b6000612b84848285016128c2565b91505092915050565b600060208284031215612ba357612ba261378f565b5b6000612bb1848285016128d7565b91505092915050565b600060208284031215612bd057612bcf61378f565b5b600082013567ffffffffffffffff811115612bee57612bed61378a565b5b612bfa8482850161291a565b91505092915050565b600060208284031215612c1957612c1861378f565b5b6000612c2784828501612948565b91505092915050565b60008060408385031215612c4757612c4661378f565b5b6000612c5585828601612948565b9250506020612c66858286016128ad565b9150509250929050565b60008060408385031215612c8757612c8661378f565b5b6000612c9585828601612948565b9250506020612ca685828601612948565b9150509250929050565b612cb9816134d3565b82525050565b612cc8816134c1565b82525050565b612cd7816134e5565b82525050565b6000612ce8826133c3565b612cf281856133d9565b9350612d02818560208601613556565b612d0b81613794565b840191505092915050565b6000612d21826133ce565b612d2b81856133ea565b9350612d3b818560208601613556565b612d4481613794565b840191505092915050565b6000612d5a826133ce565b612d6481856133fb565b9350612d74818560208601613556565b80840191505092915050565b6000612d8d602b836133ea565b9150612d98826137a5565b604082019050919050565b6000612db06032836133ea565b9150612dbb826137f4565b604082019050919050565b6000612dd3601c836133ea565b9150612dde82613843565b602082019050919050565b6000612df66024836133ea565b9150612e018261386c565b604082019050919050565b6000612e196019836133ea565b9150612e24826138bb565b602082019050919050565b6000612e3c602c836133ea565b9150612e47826138e4565b604082019050919050565b6000612e5f6038836133ea565b9150612e6a82613933565b604082019050919050565b6000612e82602a836133ea565b9150612e8d82613982565b604082019050919050565b6000612ea56029836133ea565b9150612eb0826139d1565b604082019050919050565b6000612ec86020836133ea565b9150612ed382613a20565b602082019050919050565b6000612eeb602c836133ea565b9150612ef682613a49565b604082019050919050565b6000612f0e6029836133ea565b9150612f1982613a98565b604082019050919050565b6000612f31602f836133ea565b9150612f3c82613ae7565b604082019050919050565b6000612f546021836133ea565b9150612f5f82613b36565b604082019050919050565b6000612f776031836133ea565b9150612f8282613b85565b604082019050919050565b6000612f9a602c836133ea565b9150612fa582613bd4565b604082019050919050565b612fb98161353d565b82525050565b6000612fcb8284612d4f565b915081905092915050565b6000612fe28285612d4f565b9150612fee8284612d4f565b91508190509392505050565b600060208201905061300f6000830184612cbf565b92915050565b600060808201905061302a6000830187612cbf565b6130376020830186612cbf565b6130446040830185612fb0565b81810360608301526130568184612cdd565b905095945050505050565b60006020820190506130766000830184612cce565b92915050565b600060208201905081810360008301526130968184612d16565b905092915050565b600060208201905081810360008301526130b781612d80565b9050919050565b600060208201905081810360008301526130d781612da3565b9050919050565b600060208201905081810360008301526130f781612dc6565b9050919050565b6000602082019050818103600083015261311781612de9565b9050919050565b6000602082019050818103600083015261313781612e0c565b9050919050565b6000602082019050818103600083015261315781612e2f565b9050919050565b6000602082019050818103600083015261317781612e52565b9050919050565b6000602082019050818103600083015261319781612e75565b9050919050565b600060208201905081810360008301526131b781612e98565b9050919050565b600060208201905081810360008301526131d781612ebb565b9050919050565b600060208201905081810360008301526131f781612ede565b9050919050565b6000602082019050818103600083015261321781612f01565b9050919050565b6000602082019050818103600083015261323781612f24565b9050919050565b6000602082019050818103600083015261325781612f47565b9050919050565b6000602082019050818103600083015261327781612f6a565b9050919050565b6000602082019050818103600083015261329781612f8d565b9050919050565b60006020820190506132b36000830184612fb0565b92915050565b60006060820190506132ce6000830186612fb0565b6132db6020830185612fb0565b6132e86040830184612cb0565b949350505050565b60006080820190506133056000830187612fb0565b6133126020830186612fb0565b81810360408301526133248185612d16565b90506133336060830184612cce565b95945050505050565b6000613346613357565b905061335282826135bb565b919050565b6000604051905090565b600067ffffffffffffffff82111561337c5761337b613751565b5b61338582613794565b9050602081019050919050565b600067ffffffffffffffff8211156133ad576133ac613751565b5b6133b682613794565b9050602081019050919050565b600081519050919050565b600081519050919050565b600082825260208201905092915050565b600082825260208201905092915050565b600081905092915050565b60006134118261353d565b915061341c8361353d565b9250827fffffffffffffffffffffffffffffffffffffffffffffffffffffffffffffffff0382111561345157613450613666565b5b828201905092915050565b60006134678261353d565b91506134728361353d565b92508261348257613481613695565b5b828204905092915050565b60006134988261353d565b91506134a38361353d565b9250828210156134b6576134b5613666565b5b828203905092915050565b60006134cc8261351d565b9050919050565b60006134de8261351d565b9050919050565b60008115159050919050565b60007fffffffff0000000000000000000000000000000000000000000000000000000082169050919050565b600073ffffffffffffffffffffffffffffffffffffffff82169050919050565b6000819050919050565b82818337600083830152505050565b60005b83811015613574578082015181840152602081019050613559565b83811115613583576000848401525b50505050565b600060028204905060018216806135a157607f821691505b602082108114156135b5576135b46136c4565b5b50919050565b6135c482613794565b810181811067ffffffffffffffff821117156135e3576135e2613751565b5b80604052505050565b60006135f78261353d565b91507fffffffffffffffffffffffffffffffffffffffffffffffffffffffffffffffff82141561362a57613629613666565b5b600182019050919050565b60006136408261353d565b915061364b8361353d565b92508261365b5761365a613695565b5b828206905092915050565b7f4e487b7100000000000000000000000000000000000000000000000000000000600052601160045260246000fd5b7f4e487b7100000000000000000000000000000000000000000000000000000000600052601260045260246000fd5b7f4e487b7100000000000000000000000000000000000000000000000000000000600052602260045260246000fd5b7f4e487b7100000000000000000000000000000000000000000000000000000000600052603160045260246000fd5b7f4e487b7100000000000000000000000000000000000000000000000000000000600052603260045260246000fd5b7f4e487b7100000000000000000000000000000000000000000000000000000000600052604160045260246000fd5b600080fd5b600080fd5b600080fd5b600080fd5b6000601f19601f8301169050919050565b7f455243373231456e756d657261626c653a206f776e657220696e646578206f7560008201527f74206f6620626f756e6473000000000000000000000000000000000000000000602082015250565b7f4552433732313a207472616e7366657220746f206e6f6e20455243373231526560008201527f63656976657220696d706c656d656e7465720000000000000000000000000000602082015250565b7f4552433732313a20746f6b656e20616c7265616479206d696e74656400000000600082015250565b7f4552433732313a207472616e7366657220746f20746865207a65726f2061646460008201527f7265737300000000000000000000000000000000000000000000000000000000602082015250565b7f4552433732313a20617070726f766520746f2063616c6c657200000000000000600082015250565b7f4552433732313a206f70657261746f7220717565727920666f72206e6f6e657860008201527f697374656e7420746f6b656e0000000000000000000000000000000000000000602082015250565b7f4552433732313a20617070726f76652063616c6c6572206973206e6f74206f7760008201527f6e6572206e6f7220617070726f76656420666f7220616c6c0000000000000000602082015250565b7f4552433732313a2062616c616e636520717565727920666f7220746865207a6560008201527f726f206164647265737300000000000000000000000000000000000000000000602082015250565b7f4552433732313a206f776e657220717565727920666f72206e6f6e657869737460008201527f656e7420746f6b656e0000000000000000000000000000000000000000000000602082015250565b7f4552433732313a206d696e7420746f20746865207a65726f2061646472657373600082015250565b7f4552433732313a20617070726f76656420717565727920666f72206e6f6e657860008201527f697374656e7420746f6b656e0000000000000000000000000000000000000000602082015250565b7f4552433732313a207472616e73666572206f6620746f6b656e2074686174206960008201527f73206e6f74206f776e0000000000000000000000000000000000000000000000602082015250565b7f4552433732314d657461646174613a2055524920717565727920666f72206e6f60008201527f6e6578697374656e7420746f6b656e0000000000000000000000000000000000602082015250565b7f4552433732313a20617070726f76616c20746f2063757272656e74206f776e6560008201527f7200000000000000000000000000000000000000000000000000000000000000602082015250565b7f4552433732313a207472616e736665722063616c6c6572206973206e6f74206f60008201527f776e6572206e6f7220617070726f766564000000000000000000000000000000602082015250565b7f455243373231456e756d657261626c653a20676c6f62616c20696e646578206f60008201527f7574206f6620626f756e64730000000000000000000000000000000000000000602082015250565b613c2c816134c1565b8114613c3757600080fd5b50565b613c43816134d3565b8114613c4e57600080fd5b50565b613c5a816134e5565b8114613c6557600080fd5b50565b613c71816134f1565b8114613c7c57600080fd5b50565b613c888161353d565b8114613c9357600080fd5b5056fea264697066735822122038fa373f17bf03ca68de7d11998881b69136a40421cfd6a007fbd8b7b338b12664736f6c63430008070033",
  "immutableReferences": {},
  "source": "// SPDX-License-Identifier: MIT\r\n\r\npragma solidity ^0.8.0;\r\n\r\nimport \"@openzeppelin/contracts/token/ERC721/extensions/ERC721Enumerable.sol\";\r\nimport \"@openzeppelin/contracts/token/ERC721/ERC721.sol\";\r\n\r\n\r\ncontract Color is ERC721, ERC721Enumerable {\r\n    string[] public colors;\r\n    address public owner; \r\n    mapping(string => bool) _colorExists;\r\n \r\n    struct ColorCoin {\r\n        uint id;\r\n        uint price;\r\n        string name;\r\n        bool isForSale;\r\n    }\r\n    uint public coinsCount = 0;\r\n    mapping(uint => ColorCoin) public coins;\r\n\r\n    event Sale(uint _tokenId, uint _value, address payable _owner);\r\n\r\n    constructor() ERC721(\"Color\", \"COLOR\")  {\r\n        owner = msg.sender;\r\n    }\r\n\r\n    modifier onlyOwner {\r\n        require(msg.sender == owner);\r\n        _;\r\n    }\r\n\r\n    function _beforeTokenTransfer(address from, address to, uint256 tokenId) internal override(ERC721, ERC721Enumerable) {\r\n        super._beforeTokenTransfer(from, to, tokenId);\r\n    }\r\n\r\n    function supportsInterface(bytes4 interfaceId) public view override(ERC721, ERC721Enumerable) returns (bool) {\r\n        return super.supportsInterface(interfaceId);\r\n    }\r\n\r\n    function mint(string memory _color) onlyOwner public {\r\n        // Require unique color\r\n        require(!_colorExists[_color]);\r\n        // Color add color\r\n        colors.push(_color);\r\n        uint _id = colors.length;\r\n        // Call the mint function\r\n        _mint(msg.sender, _id);\r\n        // Color track it\r\n        _colorExists[_color] = true;\r\n        // count incriment\r\n        coinsCount++;\r\n        // create new coin\r\n        ColorCoin memory _coin = ColorCoin(coinsCount, 0, _color, false);     \r\n        // add coin to mapp\r\n        coins[coinsCount] = _coin;\r\n    }\r\n\r\n    function sale(\r\n        uint _id,\r\n        bool _newStatus\r\n        ) public {\r\n            require(msg.sender == ownerOf(_id));\r\n            ColorCoin memory _coin = coins[_id];\r\n            require(_coin.isForSale != _newStatus);\r\n\r\n            _coin.isForSale = _newStatus;\r\n            coins[_id] = _coin;\r\n    }\r\n\r\n    function changePrice(\r\n        uint _id, \r\n        uint _newPrice\r\n        ) public returns(bool){\r\n            require(msg.sender == ownerOf(_id));\r\n            ColorCoin memory coin = coins[_id];\r\n            require(coin.price != _newPrice);\r\n\r\n            coin.price = _newPrice;\r\n            coins[_id] = coin;\r\n\r\n            return true;\r\n    }\r\n\r\n     function transfer(\r\n        address payable _owner, \r\n        uint _tokenId\r\n        ) public payable {\r\n        // Require unique color\r\n        ColorCoin memory _coin = coins[_tokenId];\r\n        string memory _color = _coin.name;\r\n\r\n        require(_coin.isForSale);\r\n        require(_colorExists[_color]);\r\n        require(msg.value >= _coin.price);\r\n\r\n         // call transfer\r\n        _transfer(_owner, msg.sender, _tokenId);\r\n        // money send\r\n        _owner.transfer(msg.value);\r\n        // for sale is false\r\n        _coin.isForSale = false;\r\n        // event\r\n        emit Sale(_tokenId, msg.value, _owner);\r\n    }\r\n\r\n    /*function Approve() {\r\n\r\n    }*/\r\n\r\n  \r\n\r\n}",
  "sourcePath": "F:\\Repositories\\artKDev\\solidity\\2021-08-23\\Solidity\\nft\\src\\contracts\\Color.sol",
  "compiler": {
    "name": "solc",
    "version": "0.8.7+commit.e28d00a7.Emscripten.clang"
  },
  "schemaVersion": "3.4.3",
  "updatedAt": "2021-08-31T06:57:19.358Z",
  "networkType": "ethereum",
  "devdoc": {
    "kind": "dev",
    "methods": {
      "approve(address,uint256)": {
        "details": "See {IERC721-approve}."
      },
      "balanceOf(address)": {
        "details": "See {IERC721-balanceOf}."
      },
      "getApproved(uint256)": {
        "details": "See {IERC721-getApproved}."
      },
      "isApprovedForAll(address,address)": {
        "details": "See {IERC721-isApprovedForAll}."
      },
      "name()": {
        "details": "See {IERC721Metadata-name}."
      },
      "ownerOf(uint256)": {
        "details": "See {IERC721-ownerOf}."
      },
      "safeTransferFrom(address,address,uint256)": {
        "details": "See {IERC721-safeTransferFrom}."
      },
      "safeTransferFrom(address,address,uint256,bytes)": {
        "details": "See {IERC721-safeTransferFrom}."
      },
      "setApprovalForAll(address,bool)": {
        "details": "See {IERC721-setApprovalForAll}."
      },
      "symbol()": {
        "details": "See {IERC721Metadata-symbol}."
      },
      "tokenByIndex(uint256)": {
        "details": "See {IERC721Enumerable-tokenByIndex}."
      },
      "tokenOfOwnerByIndex(address,uint256)": {
        "details": "See {IERC721Enumerable-tokenOfOwnerByIndex}."
      },
      "tokenURI(uint256)": {
        "details": "See {IERC721Metadata-tokenURI}."
      },
      "totalSupply()": {
        "details": "See {IERC721Enumerable-totalSupply}."
      },
      "transferFrom(address,address,uint256)": {
        "details": "See {IERC721-transferFrom}."
      }
    },
    "version": 1
  },
  "userdoc": {
    "kind": "user",
    "methods": {},
    "version": 1
  }
}