{
  "contractName": "ArtKDevToken",
  "abi": [
    {
      "inputs": [
        {
          "internalType": "uint256",
          "name": "_initialSupply",
          "type": "uint256"
        }
      ],
      "payable": false,
      "stateMutability": "nonpayable",
      "type": "constructor"
    },
    {
      "constant": true,
      "inputs": [],
      "name": "decimal",
      "outputs": [
        {
          "internalType": "uint8",
          "name": "",
          "type": "uint8"
        }
      ],
      "payable": false,
      "stateMutability": "view",
      "type": "function"
    },
    {
      "constant": true,
      "inputs": [],
      "name": "name",
      "outputs": [
        {
          "internalType": "string",
          "name": "",
          "type": "string"
        }
      ],
      "payable": false,
      "stateMutability": "view",
      "type": "function"
    },
    {
      "constant": true,
      "inputs": [],
      "name": "symbol",
      "outputs": [
        {
          "internalType": "string",
          "name": "",
          "type": "string"
        }
      ],
      "payable": false,
      "stateMutability": "view",
      "type": "function"
    },
    {
      "constant": true,
      "inputs": [],
      "name": "totalSupply",
      "outputs": [
        {
          "internalType": "uint256",
          "name": "",
          "type": "uint256"
        }
      ],
      "payable": false,
      "stateMutability": "view",
      "type": "function"
    },
    {
      "constant": true,
      "inputs": [
        {
          "internalType": "address",
          "name": "_owner",
          "type": "address"
        }
      ],
      "name": "balanceOf",
      "outputs": [
        {
          "internalType": "uint256",
          "name": "",
          "type": "uint256"
        }
      ],
      "payable": false,
      "stateMutability": "view",
      "type": "function"
    }
  ],
  "bytecode": "0x60806040526040518060400160405280600781526020017f4172744b446576000000000000000000000000000000000000000000000000008152506000908051906020019061004f929190610149565b506040518060400160405280600381526020017f414b4400000000000000000000000000000000000000000000000000000000008152506001908051906020019061009b929190610149565b506004600260006101000a81548160ff021916908360ff1602179055503480156100c457600080fd5b506040516105cc3803806105cc833981810160405260208110156100e757600080fd5b81019080805190602001909291905050508060038190555080600460003373ffffffffffffffffffffffffffffffffffffffff1673ffffffffffffffffffffffffffffffffffffffff16815260200190815260200160002081905550506101ee565b828054600181600116156101000203166002900490600052602060002090601f016020900481019282601f1061018a57805160ff19168380011785556101b8565b828001600101855582156101b8579182015b828111156101b757825182559160200191906001019061019c565b5b5090506101c591906101c9565b5090565b6101eb91905b808211156101e75760008160009055506001016101cf565b5090565b90565b6103cf806101fd6000396000f3fe608060405234801561001057600080fd5b50600436106100575760003560e01c806306fdde031461005c57806318160ddd146100df57806370a08231146100fd57806376809ce31461015557806395d89b4114610179575b600080fd5b6100646101fc565b6040518080602001828103825283818151815260200191508051906020019080838360005b838110156100a4578082015181840152602081019050610089565b50505050905090810190601f1680156100d15780820380516001836020036101000a031916815260200191505b509250505060405180910390f35b6100e761029a565b6040518082815260200191505060405180910390f35b61013f6004803603602081101561011357600080fd5b81019080803573ffffffffffffffffffffffffffffffffffffffff1690602001909291905050506102a0565b6040518082815260200191505060405180910390f35b61015d6102e9565b604051808260ff1660ff16815260200191505060405180910390f35b6101816102fc565b6040518080602001828103825283818151815260200191508051906020019080838360005b838110156101c15780820151818401526020810190506101a6565b50505050905090810190601f1680156101ee5780820380516001836020036101000a031916815260200191505b509250505060405180910390f35b60008054600181600116156101000203166002900480601f0160208091040260200160405190810160405280929190818152602001828054600181600116156101000203166002900480156102925780601f1061026757610100808354040283529160200191610292565b820191906000526020600020905b81548152906001019060200180831161027557829003601f168201915b505050505081565b60035481565b6000600460008373ffffffffffffffffffffffffffffffffffffffff1673ffffffffffffffffffffffffffffffffffffffff168152602001908152602001600020549050919050565b600260009054906101000a900460ff1681565b60018054600181600116156101000203166002900480601f0160208091040260200160405190810160405280929190818152602001828054600181600116156101000203166002900480156103925780601f1061036757610100808354040283529160200191610392565b820191906000526020600020905b81548152906001019060200180831161037557829003601f168201915b50505050508156fea265627a7a72315820451a6f66c875b0dc5e1c5d7d5acd3b513b48a196d79b062f5b85559f343f6a5b64736f6c63430005100032",
  "source": "// SPDX-License-Identifier: MIT\r\npragma solidity ^0.5.0;\r\n\r\ncontract ArtKDevToken {\r\n\r\n  // add Name\r\n  string public name = 'ArtKDev';\r\n  // add Synbol\r\n  string public symbol = 'AKD';\r\n  // add decimal\r\n  uint8 public decimal = 4;\r\n  // add Symbol\r\n  uint public totalSupply;\r\n  mapping(address => uint) internal balance;\r\n\r\n  // Constractor\r\n  constructor(uint256 _initialSupply) public {\r\n    totalSupply = _initialSupply;\r\n    // allocate the initial supply\r\n    balance[msg.sender] = _initialSupply;\r\n  }\r\n\r\n  function balanceOf(address _owner) public view returns(uint) {\r\n    return balance[_owner];\r\n  }\r\n\r\n\r\n\r\n  // Set the Tokens\r\n  // Real the total of tokens\r\n\r\n\r\n\r\n\r\n\r\n\r\n\r\n\r\n\r\n\r\n\r\n\r\n\r\n}\r\n",
  "sourcePath": "D:/Repository/Solidity/token_sale/contracts/ArtKDevToken.sol",
  "compiler": {
    "name": "solc",
    "version": "0.5.16+commit.9c3226ce.Emscripten.clang"
  },
  "schemaVersion": "3.4.1",
  "updatedAt": "2021-08-23T20:20:59.642Z",
  "networkType": "ethereum",
  "devdoc": {
    "methods": {}
  },
  "userdoc": {
    "methods": {}
  }
}