{
  "contractName": "ArtKDevToken",
  "abi": [
    {
      "inputs": [],
      "payable": false,
      "stateMutability": "nonpayable",
      "type": "constructor"
    },
    {
      "constant": true,
      "inputs": [],
      "name": "totalSupply",
      "outputs": [
        {
          "internalType": "uint256",
          "name": "",
          "type": "uint256"
        }
      ],
      "payable": false,
      "stateMutability": "view",
      "type": "function"
    }
  ],
  "bytecode": "0x6080604052348015600f57600080fd5b50620f42406000819055506084806100286000396000f3fe6080604052348015600f57600080fd5b506004361060285760003560e01c806318160ddd14602d575b600080fd5b60336049565b6040518082815260200191505060405180910390f35b6000548156fea265627a7a72315820f2a372df33fd2f5cf8d8f165121f226e20c5081bb9bb5b44e107b4b496db2d4d64736f6c63430005100032",
  "source": "// SPDX-License-Identifier: MIT\npragma solidity ^0.5.0;\n\ncontract ArtKDevToken {\n\n  uint public totalSupply;\n\n  // Constractor\n  constructor() public {\n    totalSupply = 1000000;\n  }\n\n  // Set the Tokens\n  // Real the total of tokens\n\n\n\n\n\n\n\n\n\n\n\n\n\n}\n",
  "sourcePath": "D:/Repository/Solidity/token_sale/contracts/ArtKDevToken.sol",
  "compiler": {
    "name": "solc",
    "version": "0.5.16+commit.9c3226ce.Emscripten.clang"
  },
  "schemaVersion": "3.4.1",
  "updatedAt": "2021-08-21T00:24:05.741Z",
  "networkType": "ethereum",
  "devdoc": {
    "methods": {}
  },
  "userdoc": {
    "methods": {}
  }
}